{
  "_format": "hh-sol-artifact-1",
  "contractName": "LandRegistryV2",
  "sourceName": "contracts/LandRegistryV2.sol",
  "abi": [
    {
      "inputs": [
        {
          "internalType": "address",
          "name": "_inspector",
          "type": "address"
        }
      ],
      "stateMutability": "nonpayable",
      "type": "constructor"
    },
    {
      "anonymous": false,
      "inputs": [
        {
          "indexed": true,
          "internalType": "uint256",
          "name": "landId",
          "type": "uint256"
        },
        {
          "indexed": true,
          "internalType": "address",
          "name": "seller",
          "type": "address"
        },
        {
          "indexed": false,
          "internalType": "string",
          "name": "location",
          "type": "string"
        },
        {
          "indexed": false,
          "internalType": "uint256",
          "name": "price",
          "type": "uint256"
        }
      ],
      "name": "LandRegistered",
      "type": "event"
    },
    {
      "anonymous": false,
      "inputs": [
        {
          "indexed": true,
          "internalType": "uint256",
          "name": "requestId",
          "type": "uint256"
        },
        {
          "indexed": true,
          "internalType": "uint256",
          "name": "landId",
          "type": "uint256"
        },
        {
          "indexed": true,
          "internalType": "address",
          "name": "buyer",
          "type": "address"
        },
        {
          "indexed": false,
          "internalType": "uint256",
          "name": "price",
          "type": "uint256"
        }
      ],
      "name": "LandRequestCreated",
      "type": "event"
    },
    {
      "anonymous": false,
      "inputs": [
        {
          "indexed": true,
          "internalType": "uint256",
          "name": "requestId",
          "type": "uint256"
        },
        {
          "indexed": true,
          "internalType": "address",
          "name": "buyer",
          "type": "address"
        },
        {
          "indexed": false,
          "internalType": "uint256",
          "name": "amount",
          "type": "uint256"
        }
      ],
      "name": "PaymentReceived",
      "type": "event"
    },
    {
      "anonymous": false,
      "inputs": [
        {
          "indexed": true,
          "internalType": "uint256",
          "name": "requestId",
          "type": "uint256"
        },
        {
          "indexed": true,
          "internalType": "uint256",
          "name": "landId",
          "type": "uint256"
        }
      ],
      "name": "RequestApproved",
      "type": "event"
    },
    {
      "anonymous": false,
      "inputs": [
        {
          "indexed": true,
          "internalType": "uint256",
          "name": "requestId",
          "type": "uint256"
        }
      ],
      "name": "RequestRejected",
      "type": "event"
    },
    {
      "anonymous": false,
      "inputs": [
        {
          "indexed": true,
          "internalType": "uint256",
          "name": "requestId",
          "type": "uint256"
        },
        {
          "indexed": true,
          "internalType": "uint256",
          "name": "landId",
          "type": "uint256"
        },
        {
          "indexed": true,
          "internalType": "address",
          "name": "newOwner",
          "type": "address"
        }
      ],
      "name": "TransferFinalized",
      "type": "event"
    },
    {
      "anonymous": false,
      "inputs": [
        {
          "indexed": true,
          "internalType": "address",
          "name": "walletAddress",
          "type": "address"
        },
        {
          "indexed": false,
          "internalType": "enum LandRegistryV2.UserRole",
          "name": "role",
          "type": "uint8"
        },
        {
          "indexed": false,
          "internalType": "string",
          "name": "name",
          "type": "string"
        }
      ],
      "name": "UserRegistered",
      "type": "event"
    },
    {
      "anonymous": false,
      "inputs": [
        {
          "indexed": true,
          "internalType": "address",
          "name": "walletAddress",
          "type": "address"
        }
      ],
      "name": "UserVerified",
      "type": "event"
    },
    {
      "inputs": [
        {
          "internalType": "uint256",
          "name": "_requestId",
          "type": "uint256"
        }
      ],
      "name": "approveLandRequest",
      "outputs": [],
      "stateMutability": "nonpayable",
      "type": "function"
    },
    {
      "inputs": [],
      "name": "contractOwner",
      "outputs": [
        {
          "internalType": "address",
          "name": "",
          "type": "address"
        }
      ],
      "stateMutability": "view",
      "type": "function"
    },
    {
      "inputs": [
        {
          "internalType": "uint256",
          "name": "_requestId",
          "type": "uint256"
        }
      ],
      "name": "finalizeTransfer",
      "outputs": [],
      "stateMutability": "nonpayable",
      "type": "function"
    },
    {
      "inputs": [],
      "name": "getAvailableLands",
      "outputs": [
        {
          "components": [
            {
              "internalType": "uint256",
              "name": "id",
              "type": "uint256"
            },
            {
              "internalType": "address",
              "name": "seller",
              "type": "address"
            },
            {
              "internalType": "string",
              "name": "location",
              "type": "string"
            },
            {
              "internalType": "uint256",
              "name": "area",
              "type": "uint256"
            },
            {
              "internalType": "uint256",
              "name": "price",
              "type": "uint256"
            },
            {
              "internalType": "string",
              "name": "imageURL",
              "type": "string"
            },
            {
              "internalType": "bool",
              "name": "isAvailable",
              "type": "bool"
            },
            {
              "internalType": "uint256",
              "name": "registrationDate",
              "type": "uint256"
            }
          ],
          "internalType": "struct LandRegistryV2.Land[]",
          "name": "",
          "type": "tuple[]"
        }
      ],
      "stateMutability": "view",
      "type": "function"
    },
    {
      "inputs": [
        {
          "internalType": "address",
          "name": "_buyer",
          "type": "address"
        }
      ],
      "name": "getBuyerRequests",
      "outputs": [
        {
          "components": [
            {
              "internalType": "uint256",
              "name": "id",
              "type": "uint256"
            },
            {
              "internalType": "uint256",
              "name": "landId",
              "type": "uint256"
            },
            {
              "internalType": "address",
              "name": "buyer",
              "type": "address"
            },
            {
              "internalType": "address",
              "name": "seller",
              "type": "address"
            },
            {
              "internalType": "uint256",
              "name": "price",
              "type": "uint256"
            },
            {
              "internalType": "enum LandRegistryV2.LandRequestStatus",
              "name": "status",
              "type": "uint8"
            },
            {
              "internalType": "bool",
              "name": "paymentReceived",
              "type": "bool"
            },
            {
              "internalType": "uint256",
              "name": "createdDate",
              "type": "uint256"
            },
            {
              "internalType": "uint256",
              "name": "approvedDate",
              "type": "uint256"
            },
            {
              "internalType": "uint256",
              "name": "completedDate",
              "type": "uint256"
            }
          ],
          "internalType": "struct LandRegistryV2.LandRequest[]",
          "name": "",
          "type": "tuple[]"
        }
      ],
      "stateMutability": "view",
      "type": "function"
    },
    {
      "inputs": [
        {
          "internalType": "uint256",
          "name": "_landId",
          "type": "uint256"
        }
      ],
      "name": "getLand",
      "outputs": [
        {
          "components": [
            {
              "internalType": "uint256",
              "name": "id",
              "type": "uint256"
            },
            {
              "internalType": "address",
              "name": "seller",
              "type": "address"
            },
            {
              "internalType": "string",
              "name": "location",
              "type": "string"
            },
            {
              "internalType": "uint256",
              "name": "area",
              "type": "uint256"
            },
            {
              "internalType": "uint256",
              "name": "price",
              "type": "uint256"
            },
            {
              "internalType": "string",
              "name": "imageURL",
              "type": "string"
            },
            {
              "internalType": "bool",
              "name": "isAvailable",
              "type": "bool"
            },
            {
              "internalType": "uint256",
              "name": "registrationDate",
              "type": "uint256"
            }
          ],
          "internalType": "struct LandRegistryV2.Land",
          "name": "",
          "type": "tuple"
        }
      ],
      "stateMutability": "view",
      "type": "function"
    },
    {
      "inputs": [
        {
          "internalType": "uint256",
          "name": "_requestId",
          "type": "uint256"
        }
      ],
      "name": "getLandRequest",
      "outputs": [
        {
          "components": [
            {
              "internalType": "uint256",
              "name": "id",
              "type": "uint256"
            },
            {
              "internalType": "uint256",
              "name": "landId",
              "type": "uint256"
            },
            {
              "internalType": "address",
              "name": "buyer",
              "type": "address"
            },
            {
              "internalType": "address",
              "name": "seller",
              "type": "address"
            },
            {
              "internalType": "uint256",
              "name": "price",
              "type": "uint256"
            },
            {
              "internalType": "enum LandRegistryV2.LandRequestStatus",
              "name": "status",
              "type": "uint8"
            },
            {
              "internalType": "bool",
              "name": "paymentReceived",
              "type": "bool"
            },
            {
              "internalType": "uint256",
              "name": "createdDate",
              "type": "uint256"
            },
            {
              "internalType": "uint256",
              "name": "approvedDate",
              "type": "uint256"
            },
            {
              "internalType": "uint256",
              "name": "completedDate",
              "type": "uint256"
            }
          ],
          "internalType": "struct LandRegistryV2.LandRequest",
          "name": "",
          "type": "tuple"
        }
      ],
      "stateMutability": "view",
      "type": "function"
    },
    {
      "inputs": [
        {
          "internalType": "address",
          "name": "_seller",
          "type": "address"
        }
      ],
      "name": "getSellerLands",
      "outputs": [
        {
          "components": [
            {
              "internalType": "uint256",
              "name": "id",
              "type": "uint256"
            },
            {
              "internalType": "address",
              "name": "seller",
              "type": "address"
            },
            {
              "internalType": "string",
              "name": "location",
              "type": "string"
            },
            {
              "internalType": "uint256",
              "name": "area",
              "type": "uint256"
            },
            {
              "internalType": "uint256",
              "name": "price",
              "type": "uint256"
            },
            {
              "internalType": "string",
              "name": "imageURL",
              "type": "string"
            },
            {
              "internalType": "bool",
              "name": "isAvailable",
              "type": "bool"
            },
            {
              "internalType": "uint256",
              "name": "registrationDate",
              "type": "uint256"
            }
          ],
          "internalType": "struct LandRegistryV2.Land[]",
          "name": "",
          "type": "tuple[]"
        }
      ],
      "stateMutability": "view",
      "type": "function"
    },
    {
      "inputs": [],
      "name": "getTotalLands",
      "outputs": [
        {
          "internalType": "uint256",
          "name": "",
          "type": "uint256"
        }
      ],
      "stateMutability": "view",
      "type": "function"
    },
    {
      "inputs": [],
      "name": "getTotalRequests",
      "outputs": [
        {
          "internalType": "uint256",
          "name": "",
          "type": "uint256"
        }
      ],
      "stateMutability": "view",
      "type": "function"
    },
    {
      "inputs": [
        {
          "internalType": "address",
          "name": "_userAddress",
          "type": "address"
        }
      ],
      "name": "getUser",
      "outputs": [
        {
          "components": [
            {
              "internalType": "address",
              "name": "walletAddress",
              "type": "address"
            },
            {
              "internalType": "enum LandRegistryV2.UserRole",
              "name": "role",
              "type": "uint8"
            },
            {
              "internalType": "string",
              "name": "name",
              "type": "string"
            },
            {
              "internalType": "bool",
              "name": "isVerified",
              "type": "bool"
            },
            {
              "internalType": "uint256",
              "name": "registrationDate",
              "type": "uint256"
            }
          ],
          "internalType": "struct LandRegistryV2.User",
          "name": "",
          "type": "tuple"
        }
      ],
      "stateMutability": "view",
      "type": "function"
    },
    {
      "inputs": [],
      "name": "inspector",
      "outputs": [
        {
          "internalType": "address",
          "name": "",
          "type": "address"
        }
      ],
      "stateMutability": "view",
      "type": "function"
    },
    {
      "inputs": [],
      "name": "landCounter",
      "outputs": [
        {
          "internalType": "uint256",
          "name": "",
          "type": "uint256"
        }
      ],
      "stateMutability": "view",
      "type": "function"
    },
    {
      "inputs": [
        {
          "internalType": "uint256",
          "name": "",
          "type": "uint256"
        },
        {
          "internalType": "uint256",
          "name": "",
          "type": "uint256"
        }
      ],
      "name": "landRequestHistory",
      "outputs": [
        {
          "internalType": "address",
          "name": "",
          "type": "address"
        }
      ],
      "stateMutability": "view",
      "type": "function"
    },
    {
      "inputs": [
        {
          "internalType": "uint256",
          "name": "",
          "type": "uint256"
        }
      ],
      "name": "landRequests",
      "outputs": [
        {
          "internalType": "uint256",
          "name": "id",
          "type": "uint256"
        },
        {
          "internalType": "uint256",
          "name": "landId",
          "type": "uint256"
        },
        {
          "internalType": "address",
          "name": "buyer",
          "type": "address"
        },
        {
          "internalType": "address",
          "name": "seller",
          "type": "address"
        },
        {
          "internalType": "uint256",
          "name": "price",
          "type": "uint256"
        },
        {
          "internalType": "enum LandRegistryV2.LandRequestStatus",
          "name": "status",
          "type": "uint8"
        },
        {
          "internalType": "bool",
          "name": "paymentReceived",
          "type": "bool"
        },
        {
          "internalType": "uint256",
          "name": "createdDate",
          "type": "uint256"
        },
        {
          "internalType": "uint256",
          "name": "approvedDate",
          "type": "uint256"
        },
        {
          "internalType": "uint256",
          "name": "completedDate",
          "type": "uint256"
        }
      ],
      "stateMutability": "view",
      "type": "function"
    },
    {
      "inputs": [
        {
          "internalType": "uint256",
          "name": "",
          "type": "uint256"
        }
      ],
      "name": "lands",
      "outputs": [
        {
          "internalType": "uint256",
          "name": "id",
          "type": "uint256"
        },
        {
          "internalType": "address",
          "name": "seller",
          "type": "address"
        },
        {
          "internalType": "string",
          "name": "location",
          "type": "string"
        },
        {
          "internalType": "uint256",
          "name": "area",
          "type": "uint256"
        },
        {
          "internalType": "uint256",
          "name": "price",
          "type": "uint256"
        },
        {
          "internalType": "string",
          "name": "imageURL",
          "type": "string"
        },
        {
          "internalType": "bool",
          "name": "isAvailable",
          "type": "bool"
        },
        {
          "internalType": "uint256",
          "name": "registrationDate",
          "type": "uint256"
        }
      ],
      "stateMutability": "view",
      "type": "function"
    },
    {
      "inputs": [
        {
          "internalType": "string",
          "name": "_location",
          "type": "string"
        },
        {
          "internalType": "uint256",
          "name": "_area",
          "type": "uint256"
        },
        {
          "internalType": "uint256",
          "name": "_price",
          "type": "uint256"
        },
        {
          "internalType": "string",
          "name": "_imageURL",
          "type": "string"
        }
      ],
      "name": "registerLand",
      "outputs": [],
      "stateMutability": "nonpayable",
      "type": "function"
    },
    {
      "inputs": [
        {
          "internalType": "enum LandRegistryV2.UserRole",
          "name": "_role",
          "type": "uint8"
        },
        {
          "internalType": "string",
          "name": "_name",
          "type": "string"
        }
      ],
      "name": "registerUser",
      "outputs": [],
      "stateMutability": "nonpayable",
      "type": "function"
    },
    {
      "inputs": [
        {
          "internalType": "uint256",
          "name": "_requestId",
          "type": "uint256"
        }
      ],
      "name": "rejectLandRequest",
      "outputs": [],
      "stateMutability": "nonpayable",
      "type": "function"
    },
    {
      "inputs": [],
      "name": "requestCounter",
      "outputs": [
        {
          "internalType": "uint256",
          "name": "",
          "type": "uint256"
        }
      ],
      "stateMutability": "view",
      "type": "function"
    },
    {
      "inputs": [
        {
          "internalType": "uint256",
          "name": "_landId",
          "type": "uint256"
        }
      ],
      "name": "requestLand",
      "outputs": [],
      "stateMutability": "payable",
      "type": "function"
    },
    {
      "inputs": [
        {
          "internalType": "address",
          "name": "_newInspector",
          "type": "address"
        }
      ],
      "name": "setInspector",
      "outputs": [],
      "stateMutability": "nonpayable",
      "type": "function"
    },
    {
      "inputs": [
        {
          "internalType": "address",
          "name": "",
          "type": "address"
        },
        {
          "internalType": "uint256",
          "name": "",
          "type": "uint256"
        }
      ],
      "name": "userLands",
      "outputs": [
        {
          "internalType": "uint256",
          "name": "",
          "type": "uint256"
        }
      ],
      "stateMutability": "view",
      "type": "function"
    },
    {
      "inputs": [
        {
          "internalType": "address",
          "name": "",
          "type": "address"
        },
        {
          "internalType": "uint256",
          "name": "",
          "type": "uint256"
        }
      ],
      "name": "userRequests",
      "outputs": [
        {
          "internalType": "uint256",
          "name": "",
          "type": "uint256"
        }
      ],
      "stateMutability": "view",
      "type": "function"
    },
    {
      "inputs": [
        {
          "internalType": "address",
          "name": "",
          "type": "address"
        }
      ],
      "name": "users",
      "outputs": [
        {
          "internalType": "address",
          "name": "walletAddress",
          "type": "address"
        },
        {
          "internalType": "enum LandRegistryV2.UserRole",
          "name": "role",
          "type": "uint8"
        },
        {
          "internalType": "string",
          "name": "name",
          "type": "string"
        },
        {
          "internalType": "bool",
          "name": "isVerified",
          "type": "bool"
        },
        {
          "internalType": "uint256",
          "name": "registrationDate",
          "type": "uint256"
        }
      ],
      "stateMutability": "view",
      "type": "function"
    },
    {
      "inputs": [
        {
          "internalType": "address",
          "name": "_userAddress",
          "type": "address"
        }
      ],
      "name": "verifyUser",
      "outputs": [],
      "stateMutability": "nonpayable",
      "type": "function"
    },
    {
      "inputs": [],
      "name": "withdrawBalance",
      "outputs": [],
      "stateMutability": "nonpayable",
      "type": "function"
    },
    {
      "stateMutability": "payable",
      "type": "receive"
    }
  ],
  "bytecode": "0x6080604052600060085560006009553480156200001b57600080fd5b506040516200592f3803806200592f8339818101604052810190620000419190620001a5565b600073ffffffffffffffffffffffffffffffffffffffff168173ffffffffffffffffffffffffffffffffffffffff1603620000b3576040517f08c379a0000000000000000000000000000000000000000000000000000000008152600401620000aa9062000238565b60405180910390fd5b806000806101000a81548173ffffffffffffffffffffffffffffffffffffffff021916908373ffffffffffffffffffffffffffffffffffffffff16021790555033600160006101000a81548173ffffffffffffffffffffffffffffffffffffffff021916908373ffffffffffffffffffffffffffffffffffffffff160217905550506200025a565b600080fd5b600073ffffffffffffffffffffffffffffffffffffffff82169050919050565b60006200016d8262000140565b9050919050565b6200017f8162000160565b81146200018b57600080fd5b50565b6000815190506200019f8162000174565b92915050565b600060208284031215620001be57620001bd6200013b565b5b6000620001ce848285016200018e565b91505092915050565b600082825260208201905092915050565b7f496e76616c696420696e73706563746f72206164647265737300000000000000600082015250565b600062000220601983620001d7565b91506200022d82620001e8565b602082019050919050565b60006020820190508181036000830152620002538162000211565b9050919050565b6156c5806200026a6000396000f3fe6080604052600436106101a05760003560e01c80638d61a156116100ec578063dc219adc1161008a578063ed2cee9e11610064578063ed2cee9e1461060e578063eed6e70c14610639578063f02dd53f14610676578063f0e22d52146106b3576101a7565b8063dc219adc14610564578063e261f1e5146105a1578063e8b185da146105e5576101a7565b80639e29ce18116100c65780639e29ce18146104a4578063a87430ba146104cf578063ce606ee014610510578063d29bcc5c1461053b576101a7565b80638d61a15614610425578063973a814e146104505780639de1322e1461047b576101a7565b80634e5cbf61116101595780636b5b1ccc116101335780636b5b1ccc146103645780636f77926b146103a1578063717c3814146103de578063842e7dba146103fa576101a7565b80634e5cbf61146102de5780635fd8c710146103075780636a29b8d71461031e576101a7565b806305682642146101ac5780631d4aab65146101d557806322810d6e14610212578063263cb6b61461024f5780634445ac4d1461028c5780634d813120146102b5576101a7565b366101a757005b600080fd5b3480156101b857600080fd5b506101d360048036038101906101ce9190613ac1565b6106de565b005b3480156101e157600080fd5b506101fc60048036038101906101f79190613bbe565b610aee565b6040516102099190613e17565b60405180910390f35b34801561021e57600080fd5b5061023960048036038101906102349190613bbe565b610d9a565b6040516102469190614031565b60405180910390f35b34801561025b57600080fd5b5061027660048036038101906102719190614053565b6110c5565b60405161028391906140a2565b60405180910390f35b34801561029857600080fd5b506102b360048036038101906102ae91906140bd565b6110f6565b005b3480156102c157600080fd5b506102dc60048036038101906102d79190613bbe565b611363565b005b3480156102ea57600080fd5b5061030560048036038101906103009190613bbe565b6115f3565b005b34801561031357600080fd5b5061031c611735565b005b34801561032a57600080fd5b50610345600480360381019061034091906140bd565b611899565b60405161035b9a99989796959493929190614117565b60405180910390f35b34801561037057600080fd5b5061038b600480360381019061038691906140bd565b611947565b604051610398919061427f565b60405180910390f35b3480156103ad57600080fd5b506103c860048036038101906103c39190613bbe565b611b04565b6040516103d59190614359565b60405180910390f35b6103f860048036038101906103f391906140bd565b611d76565b005b34801561040657600080fd5b5061040f612477565b60405161041c91906140a2565b60405180910390f35b34801561043157600080fd5b5061043a612481565b6040516104479190614031565b60405180910390f35b34801561045c57600080fd5b50610465612798565b60405161047291906140a2565b60405180910390f35b34801561048757600080fd5b506104a2600480360381019061049d91906140bd565b61279e565b005b3480156104b057600080fd5b506104b9612c0d565b6040516104c691906140a2565b60405180910390f35b3480156104db57600080fd5b506104f660048036038101906104f19190613bbe565b612c13565b6040516105079594939291906143d4565b60405180910390f35b34801561051c57600080fd5b50610525612d0b565b604051610532919061442e565b60405180910390f35b34801561054757600080fd5b50610562600480360381019061055d919061446e565b612d31565b005b34801561057057600080fd5b5061058b60048036038101906105869190614053565b61304c565b60405161059891906140a2565b60405180910390f35b3480156105ad57600080fd5b506105c860048036038101906105c391906140bd565b61307d565b6040516105dc9897969594939291906144ca565b60405180910390f35b3480156105f157600080fd5b5061060c600480360381019061060791906140bd565b613202565b005b34801561061a57600080fd5b50610623613530565b604051610630919061442e565b60405180910390f35b34801561064557600080fd5b50610660600480360381019061065b9190614556565b613554565b60405161066d919061442e565b60405180910390f35b34801561068257600080fd5b5061069d600480360381019061069891906140bd565b6135a2565b6040516106aa919061464d565b60405180910390f35b3480156106bf57600080fd5b506106c86137de565b6040516106d591906140a2565b60405180910390f35b600260003373ffffffffffffffffffffffffffffffffffffffff1673ffffffffffffffffffffffffffffffffffffffff16815260200190815260200160002060020160009054906101000a900460ff1661076d576040517f08c379a0000000000000000000000000000000000000000000000000000000008152600401610764906146bb565b60405180910390fd5b6001600281111561078157610780613c35565b5b600260003373ffffffffffffffffffffffffffffffffffffffff1673ffffffffffffffffffffffffffffffffffffffff16815260200190815260200160002060000160149054906101000a900460ff1660028111156107e3576107e2613c35565b5b14610823576040517f08c379a000000000000000000000000000000000000000000000000000000000815260040161081a90614727565b60405180910390fd5b60008311610866576040517f08c379a000000000000000000000000000000000000000000000000000000000815260040161085d90614793565b60405180910390fd5b600082116108a9576040517f08c379a00000000000000000000000000000000000000000000000000000000081526004016108a0906147ff565b60405180910390fd5b60008451116108ed576040517f08c379a00000000000000000000000000000000000000000000000000000000081526004016108e49061486b565b60405180910390fd5b60086000815480929190610900906148ba565b9190505550600060085490506040518061010001604052808281526020013373ffffffffffffffffffffffffffffffffffffffff16815260200186815260200185815260200184815260200183815260200160011515815260200142815250600360008381526020019081526020016000206000820151816000015560208201518160010160006101000a81548173ffffffffffffffffffffffffffffffffffffffff021916908373ffffffffffffffffffffffffffffffffffffffff16021790555060408201518160020190816109d89190614b0e565b50606082015181600301556080820151816004015560a0820151816005019081610a029190614b0e565b5060c08201518160060160006101000a81548160ff02191690831515021790555060e08201518160070155905050600560003373ffffffffffffffffffffffffffffffffffffffff1673ffffffffffffffffffffffffffffffffffffffff1681526020019081526020016000208190806001815401808255809150506001900390600052602060002001600090919091909150553373ffffffffffffffffffffffffffffffffffffffff16817f09f87bd638cbe9814396205461896d192bb615baa655b37f43ef8414a75b7fd58786604051610adf929190614be0565b60405180910390a35050505050565b60606000600660008473ffffffffffffffffffffffffffffffffffffffff1673ffffffffffffffffffffffffffffffffffffffff168152602001908152602001600020805480602002602001604051908101604052809291908181526020018280548015610b7b57602002820191906000526020600020905b815481526020019060010190808311610b67575b505050505090506000815167ffffffffffffffff811115610b9f57610b9e613960565b5b604051908082528060200260200182016040528015610bd857816020015b610bc56137e8565b815260200190600190039081610bbd5790505b50905060005b8251811015610d8f5760046000848381518110610bfe57610bfd614c10565b5b602002602001015181526020019081526020016000206040518061014001604052908160008201548152602001600182015481526020016002820160009054906101000a900473ffffffffffffffffffffffffffffffffffffffff1673ffffffffffffffffffffffffffffffffffffffff1673ffffffffffffffffffffffffffffffffffffffff1681526020016003820160009054906101000a900473ffffffffffffffffffffffffffffffffffffffff1673ffffffffffffffffffffffffffffffffffffffff1673ffffffffffffffffffffffffffffffffffffffff168152602001600482015481526020016005820160009054906101000a900460ff166003811115610d0f57610d0e613c35565b5b6003811115610d2157610d20613c35565b5b81526020016005820160019054906101000a900460ff161515151581526020016006820154815260200160078201548152602001600882015481525050828281518110610d7157610d70614c10565b5b60200260200101819052508080610d87906148ba565b915050610bde565b508092505050919050565b60606000600560008473ffffffffffffffffffffffffffffffffffffffff1673ffffffffffffffffffffffffffffffffffffffff168152602001908152602001600020805480602002602001604051908101604052809291908181526020018280548015610e2757602002820191906000526020600020905b815481526020019060010190808311610e13575b505050505090506000815167ffffffffffffffff811115610e4b57610e4a613960565b5b604051908082528060200260200182016040528015610e8457816020015b610e7161387b565b815260200190600190039081610e695790505b50905060005b82518110156110ba5760036000848381518110610eaa57610ea9614c10565b5b6020026020010151815260200190815260200160002060405180610100016040529081600082015481526020016001820160009054906101000a900473ffffffffffffffffffffffffffffffffffffffff1673ffffffffffffffffffffffffffffffffffffffff1673ffffffffffffffffffffffffffffffffffffffff168152602001600282018054610f3c90614931565b80601f0160208091040260200160405190810160405280929190818152602001828054610f6890614931565b8015610fb55780601f10610f8a57610100808354040283529160200191610fb5565b820191906000526020600020905b815481529060010190602001808311610f9857829003601f168201915b505050505081526020016003820154815260200160048201548152602001600582018054610fe290614931565b80601f016020809104026020016040519081016040528092919081815260200182805461100e90614931565b801561105b5780601f106110305761010080835404028352916020019161105b565b820191906000526020600020905b81548152906001019060200180831161103e57829003601f168201915b505050505081526020016006820160009054906101000a900460ff1615151515815260200160078201548152505082828151811061109c5761109b614c10565b5b602002602001018190525080806110b2906148ba565b915050610e8a565b508092505050919050565b600660205281600052604060002081815481106110e157600080fd5b90600052602060002001600091509150505481565b600260003373ffffffffffffffffffffffffffffffffffffffff1673ffffffffffffffffffffffffffffffffffffffff16815260200190815260200160002060020160009054906101000a900460ff16611185576040517f08c379a000000000000000000000000000000000000000000000000000000000815260040161117c906146bb565b60405180910390fd5b60008111801561119757506009548111155b6111d6576040517f08c379a00000000000000000000000000000000000000000000000000000000081526004016111cd90614c8b565b60405180910390fd5b60006004600083815260200190815260200160002090506000600381111561120157611200613c35565b5b8160050160009054906101000a900460ff16600381111561122557611224613c35565b5b14611265576040517f08c379a000000000000000000000000000000000000000000000000000000000815260040161125c90614cf7565b60405180910390fd5b8060030160009054906101000a900473ffffffffffffffffffffffffffffffffffffffff1673ffffffffffffffffffffffffffffffffffffffff163373ffffffffffffffffffffffffffffffffffffffff16146112f7576040517f08c379a00000000000000000000000000000000000000000000000000000000081526004016112ee90614d63565b60405180910390fd5b60018160050160006101000a81548160ff0219169083600381111561131f5761131e613c35565b5b02179055504281600701819055508060010154827f99593786774c6f33049716fd956b1672f46813adf0f67f51f81345b36ba0b84760405160405180910390a35050565b60008054906101000a900473ffffffffffffffffffffffffffffffffffffffff1673ffffffffffffffffffffffffffffffffffffffff163373ffffffffffffffffffffffffffffffffffffffff16146113f1576040517f08c379a00000000000000000000000000000000000000000000000000000000081526004016113e890614dcf565b60405180910390fd5b600073ffffffffffffffffffffffffffffffffffffffff16600260008373ffffffffffffffffffffffffffffffffffffffff1673ffffffffffffffffffffffffffffffffffffffff16815260200190815260200160002060000160009054906101000a900473ffffffffffffffffffffffffffffffffffffffff1673ffffffffffffffffffffffffffffffffffffffff16036114c2576040517f08c379a00000000000000000000000000000000000000000000000000000000081526004016114b990614e3b565b60405180910390fd5b600260008273ffffffffffffffffffffffffffffffffffffffff1673ffffffffffffffffffffffffffffffffffffffff16815260200190815260200160002060020160009054906101000a900460ff1615611552576040517f08c379a000000000000000000000000000000000000000000000000000000000815260040161154990614ea7565b60405180910390fd5b6001600260008373ffffffffffffffffffffffffffffffffffffffff1673ffffffffffffffffffffffffffffffffffffffff16815260200190815260200160002060020160006101000a81548160ff0219169083151502179055508073ffffffffffffffffffffffffffffffffffffffff167fa6625d2d26e786e2f473111bea4b2fcdbbf1863d883a2359989ce3a103d2972a60405160405180910390a250565b600160009054906101000a900473ffffffffffffffffffffffffffffffffffffffff1673ffffffffffffffffffffffffffffffffffffffff163373ffffffffffffffffffffffffffffffffffffffff1614611683576040517f08c379a000000000000000000000000000000000000000000000000000000000815260040161167a90614f13565b60405180910390fd5b600073ffffffffffffffffffffffffffffffffffffffff168173ffffffffffffffffffffffffffffffffffffffff16036116f2576040517f08c379a00000000000000000000000000000000000000000000000000000000081526004016116e990614f7f565b60405180910390fd5b806000806101000a81548173ffffffffffffffffffffffffffffffffffffffff021916908373ffffffffffffffffffffffffffffffffffffffff16021790555050565b60008054906101000a900473ffffffffffffffffffffffffffffffffffffffff1673ffffffffffffffffffffffffffffffffffffffff163373ffffffffffffffffffffffffffffffffffffffff16146117c3576040517f08c379a00000000000000000000000000000000000000000000000000000000081526004016117ba90614dcf565b60405180910390fd5b600047905060008060009054906101000a900473ffffffffffffffffffffffffffffffffffffffff1673ffffffffffffffffffffffffffffffffffffffff168260405161180f90614fd0565b60006040518083038185875af1925050503d806000811461184c576040519150601f19603f3d011682016040523d82523d6000602084013e611851565b606091505b5050905080611895576040517f08c379a000000000000000000000000000000000000000000000000000000000815260040161188c90615031565b60405180910390fd5b5050565b60046020528060005260406000206000915090508060000154908060010154908060020160009054906101000a900473ffffffffffffffffffffffffffffffffffffffff16908060030160009054906101000a900473ffffffffffffffffffffffffffffffffffffffff16908060040154908060050160009054906101000a900460ff16908060050160019054906101000a900460ff1690806006015490806007015490806008015490508a565b61194f6137e8565b60008211801561196157506009548211155b6119a0576040517f08c379a000000000000000000000000000000000000000000000000000000000815260040161199790614c8b565b60405180910390fd5b600460008381526020019081526020016000206040518061014001604052908160008201548152602001600182015481526020016002820160009054906101000a900473ffffffffffffffffffffffffffffffffffffffff1673ffffffffffffffffffffffffffffffffffffffff1673ffffffffffffffffffffffffffffffffffffffff1681526020016003820160009054906101000a900473ffffffffffffffffffffffffffffffffffffffff1673ffffffffffffffffffffffffffffffffffffffff1673ffffffffffffffffffffffffffffffffffffffff168152602001600482015481526020016005820160009054906101000a900460ff166003811115611aae57611aad613c35565b5b6003811115611ac057611abf613c35565b5b81526020016005820160019054906101000a900460ff1615151515815260200160068201548152602001600782015481526020016008820154815250509050919050565b611b0c6138d8565b600073ffffffffffffffffffffffffffffffffffffffff16600260008473ffffffffffffffffffffffffffffffffffffffff1673ffffffffffffffffffffffffffffffffffffffff16815260200190815260200160002060000160009054906101000a900473ffffffffffffffffffffffffffffffffffffffff1673ffffffffffffffffffffffffffffffffffffffff1603611bdd576040517f08c379a0000000000000000000000000000000000000000000000000000000008152600401611bd49061509d565b60405180910390fd5b600260008373ffffffffffffffffffffffffffffffffffffffff1673ffffffffffffffffffffffffffffffffffffffff1681526020019081526020016000206040518060a00160405290816000820160009054906101000a900473ffffffffffffffffffffffffffffffffffffffff1673ffffffffffffffffffffffffffffffffffffffff1673ffffffffffffffffffffffffffffffffffffffff1681526020016000820160149054906101000a900460ff166002811115611ca257611ca1613c35565b5b6002811115611cb457611cb3613c35565b5b8152602001600182018054611cc890614931565b80601f0160208091040260200160405190810160405280929190818152602001828054611cf490614931565b8015611d415780601f10611d1657610100808354040283529160200191611d41565b820191906000526020600020905b815481529060010190602001808311611d2457829003601f168201915b505050505081526020016002820160009054906101000a900460ff161515151581526020016003820154815250509050919050565b600260003373ffffffffffffffffffffffffffffffffffffffff1673ffffffffffffffffffffffffffffffffffffffff16815260200190815260200160002060020160009054906101000a900460ff16611e05576040517f08c379a0000000000000000000000000000000000000000000000000000000008152600401611dfc906146bb565b60405180910390fd5b600280811115611e1857611e17613c35565b5b600260003373ffffffffffffffffffffffffffffffffffffffff1673ffffffffffffffffffffffffffffffffffffffff16815260200190815260200160002060000160149054906101000a900460ff166002811115611e7a57611e79613c35565b5b14611eba576040517f08c379a0000000000000000000000000000000000000000000000000000000008152600401611eb190615109565b60405180910390fd5b600081118015611ecc57506008548111155b611f0b576040517f08c379a0000000000000000000000000000000000000000000000000000000008152600401611f0290615175565b60405180910390fd5b60006003600083815260200190815260200160002090508060060160009054906101000a900460ff16611f73576040517f08c379a0000000000000000000000000000000000000000000000000000000008152600401611f6a906151e1565b60405180910390fd5b80600401543414611fb9576040517f08c379a0000000000000000000000000000000000000000000000000000000008152600401611fb090615273565b60405180910390fd5b8060010160009054906101000a900473ffffffffffffffffffffffffffffffffffffffff1673ffffffffffffffffffffffffffffffffffffffff163373ffffffffffffffffffffffffffffffffffffffff160361204b576040517f08c379a0000000000000000000000000000000000000000000000000000000008152600401612042906152df565b60405180910390fd5b6009600081548092919061205e906148ba565b9190505550600060095490506040518061014001604052808281526020018481526020013373ffffffffffffffffffffffffffffffffffffffff1681526020018360010160009054906101000a900473ffffffffffffffffffffffffffffffffffffffff1673ffffffffffffffffffffffffffffffffffffffff16815260200183600401548152602001600060038111156120fc576120fb613c35565b5b815260200160011515815260200142815260200160008152602001600081525060046000838152602001908152602001600020600082015181600001556020820151816001015560408201518160020160006101000a81548173ffffffffffffffffffffffffffffffffffffffff021916908373ffffffffffffffffffffffffffffffffffffffff16021790555060608201518160030160006101000a81548173ffffffffffffffffffffffffffffffffffffffff021916908373ffffffffffffffffffffffffffffffffffffffff1602179055506080820151816004015560a08201518160050160006101000a81548160ff0219169083600381111561220657612205613c35565b5b021790555060c08201518160050160016101000a81548160ff02191690831515021790555060e0820151816006015561010082015181600701556101208201518160080155905050600660003373ffffffffffffffffffffffffffffffffffffffff1673ffffffffffffffffffffffffffffffffffffffff168152602001908152602001600020819080600181540180825580915050600190039060005260206000200160009091909190915055600660008360010160009054906101000a900473ffffffffffffffffffffffffffffffffffffffff1673ffffffffffffffffffffffffffffffffffffffff1673ffffffffffffffffffffffffffffffffffffffff16815260200190815260200160002081908060018154018082558091505060019003906000526020600020016000909190919091505560076000848152602001908152602001600020339080600181540180825580915050600190039060005260206000200160009091909190916101000a81548173ffffffffffffffffffffffffffffffffffffffff021916908373ffffffffffffffffffffffffffffffffffffffff16021790555060008260060160006101000a81548160ff0219169083151502179055503373ffffffffffffffffffffffffffffffffffffffff1683827fe45bd06dc2b4b5f08bbdc394c2c200ed48c8e57ef469b20f990715aeca86d3d8856004015460405161241b91906140a2565b60405180910390a43373ffffffffffffffffffffffffffffffffffffffff16817f4d3f6d68b42e1e039d6e7323b2b8bdeaf223f453882ce17a5984f4d6aabbdb333460405161246a91906140a2565b60405180910390a3505050565b6000600854905090565b6060600080600190505b60085481116124df576003600082815260200190815260200160002060060160009054906101000a900460ff16156124cc5781806124c8906148ba565b9250505b80806124d7906148ba565b91505061248b565b5060008167ffffffffffffffff8111156124fc576124fb613960565b5b60405190808252806020026020018201604052801561253557816020015b61252261387b565b81526020019060019003908161251a5790505b509050600080600190505b600854811161278e576003600082815260200190815260200160002060060160009054906101000a900460ff161561277b576003600082815260200190815260200160002060405180610100016040529081600082015481526020016001820160009054906101000a900473ffffffffffffffffffffffffffffffffffffffff1673ffffffffffffffffffffffffffffffffffffffff1673ffffffffffffffffffffffffffffffffffffffff16815260200160028201805461260190614931565b80601f016020809104026020016040519081016040528092919081815260200182805461262d90614931565b801561267a5780601f1061264f5761010080835404028352916020019161267a565b820191906000526020600020905b81548152906001019060200180831161265d57829003601f168201915b5050505050815260200160038201548152602001600482015481526020016005820180546126a790614931565b80601f01602080910402602001604051908101604052809291908181526020018280546126d390614931565b80156127205780601f106126f557610100808354040283529160200191612720565b820191906000526020600020905b81548152906001019060200180831161270357829003601f168201915b505050505081526020016006820160009054906101000a900460ff1615151515815260200160078201548152505083838151811061276157612760614c10565b5b60200260200101819052508180612777906148ba565b9250505b8080612786906148ba565b915050612540565b5081935050505090565b60095481565b60008054906101000a900473ffffffffffffffffffffffffffffffffffffffff1673ffffffffffffffffffffffffffffffffffffffff163373ffffffffffffffffffffffffffffffffffffffff161461282c576040517f08c379a000000000000000000000000000000000000000000000000000000000815260040161282390614dcf565b60405180910390fd5b60008111801561283e57506009548111155b61287d576040517f08c379a000000000000000000000000000000000000000000000000000000000815260040161287490614c8b565b60405180910390fd5b6000600460008381526020019081526020016000209050600160038111156128a8576128a7613c35565b5b8160050160009054906101000a900460ff1660038111156128cc576128cb613c35565b5b1461290c576040517f08c379a00000000000000000000000000000000000000000000000000000000081526004016129039061534b565b60405180910390fd5b8060050160019054906101000a900460ff1661295d576040517f08c379a0000000000000000000000000000000000000000000000000000000008152600401612954906153b7565b60405180910390fd5b6000600360008360010154815260200190815260200160002090508160020160009054906101000a900473ffffffffffffffffffffffffffffffffffffffff168160010160006101000a81548173ffffffffffffffffffffffffffffffffffffffff021916908373ffffffffffffffffffffffffffffffffffffffff16021790555060018160060160006101000a81548160ff021916908315150217905550600560008360020160009054906101000a900473ffffffffffffffffffffffffffffffffffffffff1673ffffffffffffffffffffffffffffffffffffffff1673ffffffffffffffffffffffffffffffffffffffff1681526020019081526020016000208260010154908060018154018082558091505060019003906000526020600020016000909190919091505560038260050160006101000a81548160ff02191690836003811115612ab257612ab1613c35565b5b021790555042826008018190555060008260030160009054906101000a900473ffffffffffffffffffffffffffffffffffffffff16905060008173ffffffffffffffffffffffffffffffffffffffff168460040154604051612b1390614fd0565b60006040518083038185875af1925050503d8060008114612b50576040519150601f19603f3d011682016040523d82523d6000602084013e612b55565b606091505b5050905080612b99576040517f08c379a0000000000000000000000000000000000000000000000000000000008152600401612b9090615423565b60405180910390fd5b8360020160009054906101000a900473ffffffffffffffffffffffffffffffffffffffff1673ffffffffffffffffffffffffffffffffffffffff168460010154867fcab8ecda484d80608853f706bc9d959773f369c6a4f31da43795b94af101d76a60405160405180910390a45050505050565b60085481565b60026020528060005260406000206000915090508060000160009054906101000a900473ffffffffffffffffffffffffffffffffffffffff16908060000160149054906101000a900460ff1690806001018054612c6f90614931565b80601f0160208091040260200160405190810160405280929190818152602001828054612c9b90614931565b8015612ce85780601f10612cbd57610100808354040283529160200191612ce8565b820191906000526020600020905b815481529060010190602001808311612ccb57829003601f168201915b5050505050908060020160009054906101000a900460ff16908060030154905085565b600160009054906101000a900473ffffffffffffffffffffffffffffffffffffffff1681565b60006002811115612d4557612d44613c35565b5b826002811115612d5857612d57613c35565b5b03612d98576040517f08c379a0000000000000000000000000000000000000000000000000000000008152600401612d8f9061548f565b60405180910390fd5b600073ffffffffffffffffffffffffffffffffffffffff16600260003373ffffffffffffffffffffffffffffffffffffffff1673ffffffffffffffffffffffffffffffffffffffff16815260200190815260200160002060000160009054906101000a900473ffffffffffffffffffffffffffffffffffffffff1673ffffffffffffffffffffffffffffffffffffffff1614612e69576040517f08c379a0000000000000000000000000000000000000000000000000000000008152600401612e60906154fb565b60405180910390fd5b6000815111612ead576040517f08c379a0000000000000000000000000000000000000000000000000000000008152600401612ea490615567565b60405180910390fd5b6040518060a001604052803373ffffffffffffffffffffffffffffffffffffffff168152602001836002811115612ee757612ee6613c35565b5b815260200182815260200160001515815260200142815250600260003373ffffffffffffffffffffffffffffffffffffffff1673ffffffffffffffffffffffffffffffffffffffff16815260200190815260200160002060008201518160000160006101000a81548173ffffffffffffffffffffffffffffffffffffffff021916908373ffffffffffffffffffffffffffffffffffffffff16021790555060208201518160000160146101000a81548160ff02191690836002811115612fb057612faf613c35565b5b02179055506040820151816001019081612fca9190614b0e565b5060608201518160020160006101000a81548160ff021916908315150217905550608082015181600301559050503373ffffffffffffffffffffffffffffffffffffffff167f04221ffa167b8d0a33647e46ee4f6728f4fe3651e4d56715ed0941b12046147b8383604051613040929190615587565b60405180910390a25050565b6005602052816000526040600020818154811061306857600080fd5b90600052602060002001600091509150505481565b60036020528060005260406000206000915090508060000154908060010160009054906101000a900473ffffffffffffffffffffffffffffffffffffffff16908060020180546130cc90614931565b80601f01602080910402602001604051908101604052809291908181526020018280546130f890614931565b80156131455780601f1061311a57610100808354040283529160200191613145565b820191906000526020600020905b81548152906001019060200180831161312857829003601f168201915b50505050509080600301549080600401549080600501805461316690614931565b80601f016020809104026020016040519081016040528092919081815260200182805461319290614931565b80156131df5780601f106131b4576101008083540402835291602001916131df565b820191906000526020600020905b8154815290600101906020018083116131c257829003601f168201915b5050505050908060060160009054906101000a900460ff16908060070154905088565b60008111801561321457506009548111155b613253576040517f08c379a000000000000000000000000000000000000000000000000000000000815260040161324a90614c8b565b60405180910390fd5b60006004600083815260200190815260200160002090506000600381111561327e5761327d613c35565b5b8160050160009054906101000a900460ff1660038111156132a2576132a1613c35565b5b146132e2576040517f08c379a00000000000000000000000000000000000000000000000000000000081526004016132d990614cf7565b60405180910390fd5b8060030160009054906101000a900473ffffffffffffffffffffffffffffffffffffffff1673ffffffffffffffffffffffffffffffffffffffff163373ffffffffffffffffffffffffffffffffffffffff16148061338b575060008054906101000a900473ffffffffffffffffffffffffffffffffffffffff1673ffffffffffffffffffffffffffffffffffffffff163373ffffffffffffffffffffffffffffffffffffffff16145b6133ca576040517f08c379a00000000000000000000000000000000000000000000000000000000081526004016133c190615603565b60405180910390fd5b60028160050160006101000a81548160ff021916908360038111156133f2576133f1613c35565b5b02179055506001600360008360010154815260200190815260200160002060060160006101000a81548160ff02191690831515021790555060008160020160009054906101000a900473ffffffffffffffffffffffffffffffffffffffff1673ffffffffffffffffffffffffffffffffffffffff16826004015460405161347890614fd0565b60006040518083038185875af1925050503d80600081146134b5576040519150601f19603f3d011682016040523d82523d6000602084013e6134ba565b606091505b50509050806134fe576040517f08c379a00000000000000000000000000000000000000000000000000000000081526004016134f59061566f565b60405180910390fd5b827f1fdac08e93f72ff55b24ebdf4152b7f56b98982fe9249639c1010cc52aebccd660405160405180910390a2505050565b60008054906101000a900473ffffffffffffffffffffffffffffffffffffffff1681565b6007602052816000526040600020818154811061357057600080fd5b906000526020600020016000915091509054906101000a900473ffffffffffffffffffffffffffffffffffffffff1681565b6135aa61387b565b6000821180156135bc57506008548211155b6135fb576040517f08c379a00000000000000000000000000000000000000000000000000000000081526004016135f290615175565b60405180910390fd5b6003600083815260200190815260200160002060405180610100016040529081600082015481526020016001820160009054906101000a900473ffffffffffffffffffffffffffffffffffffffff1673ffffffffffffffffffffffffffffffffffffffff1673ffffffffffffffffffffffffffffffffffffffff16815260200160028201805461368a90614931565b80601f01602080910402602001604051908101604052809291908181526020018280546136b690614931565b80156137035780601f106136d857610100808354040283529160200191613703565b820191906000526020600020905b8154815290600101906020018083116136e657829003601f168201915b50505050508152602001600382015481526020016004820154815260200160058201805461373090614931565b80601f016020809104026020016040519081016040528092919081815260200182805461375c90614931565b80156137a95780601f1061377e576101008083540402835291602001916137a9565b820191906000526020600020905b81548152906001019060200180831161378c57829003601f168201915b505050505081526020016006820160009054906101000a900460ff161515151581526020016007820154815250509050919050565b6000600954905090565b6040518061014001604052806000815260200160008152602001600073ffffffffffffffffffffffffffffffffffffffff168152602001600073ffffffffffffffffffffffffffffffffffffffff168152602001600081526020016000600381111561385757613856613c35565b5b81526020016000151581526020016000815260200160008152602001600081525090565b60405180610100016040528060008152602001600073ffffffffffffffffffffffffffffffffffffffff16815260200160608152602001600081526020016000815260200160608152602001600015158152602001600081525090565b6040518060a00160405280600073ffffffffffffffffffffffffffffffffffffffff1681526020016000600281111561391457613913613c35565b5b815260200160608152602001600015158152602001600081525090565b6000604051905090565b600080fd5b600080fd5b600080fd5b600080fd5b6000601f19601f8301169050919050565b7f4e487b7100000000000000000000000000000000000000000000000000000000600052604160045260246000fd5b6139988261394f565b810181811067ffffffffffffffff821117156139b7576139b6613960565b5b80604052505050565b60006139ca613931565b90506139d6828261398f565b919050565b600067ffffffffffffffff8211156139f6576139f5613960565b5b6139ff8261394f565b9050602081019050919050565b82818337600083830152505050565b6000613a2e613a29846139db565b6139c0565b905082815260208101848484011115613a4a57613a4961394a565b5b613a55848285613a0c565b509392505050565b600082601f830112613a7257613a71613945565b5b8135613a82848260208601613a1b565b91505092915050565b6000819050919050565b613a9e81613a8b565b8114613aa957600080fd5b50565b600081359050613abb81613a95565b92915050565b60008060008060808587031215613adb57613ada61393b565b5b600085013567ffffffffffffffff811115613af957613af8613940565b5b613b0587828801613a5d565b9450506020613b1687828801613aac565b9350506040613b2787828801613aac565b925050606085013567ffffffffffffffff811115613b4857613b47613940565b5b613b5487828801613a5d565b91505092959194509250565b600073ffffffffffffffffffffffffffffffffffffffff82169050919050565b6000613b8b82613b60565b9050919050565b613b9b81613b80565b8114613ba657600080fd5b50565b600081359050613bb881613b92565b92915050565b600060208284031215613bd457613bd361393b565b5b6000613be284828501613ba9565b91505092915050565b600081519050919050565b600082825260208201905092915050565b6000819050602082019050919050565b613c2081613a8b565b82525050565b613c2f81613b80565b82525050565b7f4e487b7100000000000000000000000000000000000000000000000000000000600052602160045260246000fd5b60048110613c7557613c74613c35565b5b50565b6000819050613c8682613c64565b919050565b6000613c9682613c78565b9050919050565b613ca681613c8b565b82525050565b60008115159050919050565b613cc181613cac565b82525050565b61014082016000820151613cde6000850182613c17565b506020820151613cf16020850182613c17565b506040820151613d046040850182613c26565b506060820151613d176060850182613c26565b506080820151613d2a6080850182613c17565b5060a0820151613d3d60a0850182613c9d565b5060c0820151613d5060c0850182613cb8565b5060e0820151613d6360e0850182613c17565b50610100820151613d78610100850182613c17565b50610120820151613d8d610120850182613c17565b50505050565b6000613d9f8383613cc7565b6101408301905092915050565b6000602082019050919050565b6000613dc482613beb565b613dce8185613bf6565b9350613dd983613c07565b8060005b83811015613e0a578151613df18882613d93565b9750613dfc83613dac565b925050600181019050613ddd565b5085935050505092915050565b60006020820190508181036000830152613e318184613db9565b905092915050565b600081519050919050565b600082825260208201905092915050565b6000819050602082019050919050565b600081519050919050565b600082825260208201905092915050565b60005b83811015613e9f578082015181840152602081019050613e84565b60008484015250505050565b6000613eb682613e65565b613ec08185613e70565b9350613ed0818560208601613e81565b613ed98161394f565b840191505092915050565b600061010083016000830151613efd6000860182613c17565b506020830151613f106020860182613c26565b5060408301518482036040860152613f288282613eab565b9150506060830151613f3d6060860182613c17565b506080830151613f506080860182613c17565b5060a083015184820360a0860152613f688282613eab565b91505060c0830151613f7d60c0860182613cb8565b5060e0830151613f9060e0860182613c17565b508091505092915050565b6000613fa78383613ee4565b905092915050565b6000602082019050919050565b6000613fc782613e39565b613fd18185613e44565b935083602082028501613fe385613e55565b8060005b8581101561401f57848403895281516140008582613f9b565b945061400b83613faf565b925060208a01995050600181019050613fe7565b50829750879550505050505092915050565b6000602082019050818103600083015261404b8184613fbc565b905092915050565b6000806040838503121561406a5761406961393b565b5b600061407885828601613ba9565b925050602061408985828601613aac565b9150509250929050565b61409c81613a8b565b82525050565b60006020820190506140b76000830184614093565b92915050565b6000602082840312156140d3576140d261393b565b5b60006140e184828501613aac565b91505092915050565b6140f381613b80565b82525050565b61410281613c8b565b82525050565b61411181613cac565b82525050565b60006101408201905061412d600083018d614093565b61413a602083018c614093565b614147604083018b6140ea565b614154606083018a6140ea565b6141616080830189614093565b61416e60a08301886140f9565b61417b60c0830187614108565b61418860e0830186614093565b614196610100830185614093565b6141a4610120830184614093565b9b9a5050505050505050505050565b610140820160008201516141ca6000850182613c17565b5060208201516141dd6020850182613c17565b5060408201516141f06040850182613c26565b5060608201516142036060850182613c26565b5060808201516142166080850182613c17565b5060a082015161422960a0850182613c9d565b5060c082015161423c60c0850182613cb8565b5060e082015161424f60e0850182613c17565b50610100820151614264610100850182613c17565b50610120820151614279610120850182613c17565b50505050565b60006101408201905061429560008301846141b3565b92915050565b600381106142ac576142ab613c35565b5b50565b60008190506142bd8261429b565b919050565b60006142cd826142af565b9050919050565b6142dd816142c2565b82525050565b600060a0830160008301516142fb6000860182613c26565b50602083015161430e60208601826142d4565b50604083015184820360408601526143268282613eab565b915050606083015161433b6060860182613cb8565b50608083015161434e6080860182613c17565b508091505092915050565b6000602082019050818103600083015261437381846142e3565b905092915050565b614384816142c2565b82525050565b600082825260208201905092915050565b60006143a682613e65565b6143b0818561438a565b93506143c0818560208601613e81565b6143c98161394f565b840191505092915050565b600060a0820190506143e960008301886140ea565b6143f6602083018761437b565b8181036040830152614408818661439b565b90506144176060830185614108565b6144246080830184614093565b9695505050505050565b600060208201905061444360008301846140ea565b92915050565b6003811061445657600080fd5b50565b60008135905061446881614449565b92915050565b600080604083850312156144855761448461393b565b5b600061449385828601614459565b925050602083013567ffffffffffffffff8111156144b4576144b3613940565b5b6144c085828601613a5d565b9150509250929050565b6000610100820190506144e0600083018b614093565b6144ed602083018a6140ea565b81810360408301526144ff818961439b565b905061450e6060830188614093565b61451b6080830187614093565b81810360a083015261452d818661439b565b905061453c60c0830185614108565b61454960e0830184614093565b9998505050505050505050565b6000806040838503121561456d5761456c61393b565b5b600061457b85828601613aac565b925050602061458c85828601613aac565b9150509250929050565b6000610100830160008301516145af6000860182613c17565b5060208301516145c26020860182613c26565b50604083015184820360408601526145da8282613eab565b91505060608301516145ef6060860182613c17565b5060808301516146026080860182613c17565b5060a083015184820360a086015261461a8282613eab565b91505060c083015161462f60c0860182613cb8565b5060e083015161464260e0860182613c17565b508091505092915050565b600060208201905081810360008301526146678184614596565b905092915050565b7f55736572206e6f74207665726966696564000000000000000000000000000000600082015250565b60006146a560118361438a565b91506146b08261466f565b602082019050919050565b600060208201905081810360008301526146d481614698565b9050919050565b7f4f6e6c792073656c6c6572732063616e2063616c6c2074686973000000000000600082015250565b6000614711601a8361438a565b915061471c826146db565b602082019050919050565b6000602082019050818103600083015261474081614704565b9050919050565b7f41726561206d7573742062652067726561746572207468616e207a65726f0000600082015250565b600061477d601e8361438a565b915061478882614747565b602082019050919050565b600060208201905081810360008301526147ac81614770565b9050919050565b7f5072696365206d7573742062652067726561746572207468616e207a65726f00600082015250565b60006147e9601f8361438a565b91506147f4826147b3565b602082019050919050565b60006020820190508181036000830152614818816147dc565b9050919050565b7f4c6f636174696f6e2063616e6e6f7420626520656d7074790000000000000000600082015250565b600061485560188361438a565b91506148608261481f565b602082019050919050565b6000602082019050818103600083015261488481614848565b9050919050565b7f4e487b7100000000000000000000000000000000000000000000000000000000600052601160045260246000fd5b60006148c582613a8b565b91507fffffffffffffffffffffffffffffffffffffffffffffffffffffffffffffffff82036148f7576148f661488b565b5b600182019050919050565b7f4e487b7100000000000000000000000000000000000000000000000000000000600052602260045260246000fd5b6000600282049050600182168061494957607f821691505b60208210810361495c5761495b614902565b5b50919050565b60008190508160005260206000209050919050565b60006020601f8301049050919050565b600082821b905092915050565b6000600883026149c47fffffffffffffffffffffffffffffffffffffffffffffffffffffffffffffffff82614987565b6149ce8683614987565b95508019841693508086168417925050509392505050565b6000819050919050565b6000614a0b614a06614a0184613a8b565b6149e6565b613a8b565b9050919050565b6000819050919050565b614a25836149f0565b614a39614a3182614a12565b848454614994565b825550505050565b600090565b614a4e614a41565b614a59818484614a1c565b505050565b5b81811015614a7d57614a72600082614a46565b600181019050614a5f565b5050565b601f821115614ac257614a9381614962565b614a9c84614977565b81016020851015614aab578190505b614abf614ab785614977565b830182614a5e565b50505b505050565b600082821c905092915050565b6000614ae560001984600802614ac7565b1980831691505092915050565b6000614afe8383614ad4565b9150826002028217905092915050565b614b1782613e65565b67ffffffffffffffff811115614b3057614b2f613960565b5b614b3a8254614931565b614b45828285614a81565b600060209050601f831160018114614b785760008415614b66578287015190505b614b708582614af2565b865550614bd8565b601f198416614b8686614962565b60005b82811015614bae57848901518255600182019150602085019450602081019050614b89565b86831015614bcb5784890151614bc7601f891682614ad4565b8355505b6001600288020188555050505b505050505050565b60006040820190508181036000830152614bfa818561439b565b9050614c096020830184614093565b9392505050565b7f4e487b7100000000000000000000000000000000000000000000000000000000600052603260045260246000fd5b7f496e76616c696420726571756573742049440000000000000000000000000000600082015250565b6000614c7560128361438a565b9150614c8082614c3f565b602082019050919050565b60006020820190508181036000830152614ca481614c68565b9050919050565b7f52657175657374206973206e6f742070656e64696e6700000000000000000000600082015250565b6000614ce160168361438a565b9150614cec82614cab565b602082019050919050565b60006020820190508181036000830152614d1081614cd4565b9050919050565b7f4f6e6c792073656c6c65722063616e20617070726f7665000000000000000000600082015250565b6000614d4d60178361438a565b9150614d5882614d17565b602082019050919050565b60006020820190508181036000830152614d7c81614d40565b9050919050565b7f4f6e6c7920696e73706563746f722063616e2063616c6c207468697300000000600082015250565b6000614db9601c8361438a565b9150614dc482614d83565b602082019050919050565b60006020820190508181036000830152614de881614dac565b9050919050565b7f55736572206e6f74207265676973746572656400000000000000000000000000600082015250565b6000614e2560138361438a565b9150614e3082614def565b602082019050919050565b60006020820190508181036000830152614e5481614e18565b9050919050565b7f5573657220616c72656164792076657269666965640000000000000000000000600082015250565b6000614e9160158361438a565b9150614e9c82614e5b565b602082019050919050565b60006020820190508181036000830152614ec081614e84565b9050919050565b7f4f6e6c79206f776e65722063616e2063616c6c20746869730000000000000000600082015250565b6000614efd60188361438a565b9150614f0882614ec7565b602082019050919050565b60006020820190508181036000830152614f2c81614ef0565b9050919050565b7f496e76616c696420696e73706563746f72206164647265737300000000000000600082015250565b6000614f6960198361438a565b9150614f7482614f33565b602082019050919050565b60006020820190508181036000830152614f9881614f5c565b9050919050565b600081905092915050565b50565b6000614fba600083614f9f565b9150614fc582614faa565b600082019050919050565b6000614fdb82614fad565b9150819050919050565b7f5769746864726177616c206661696c6564000000000000000000000000000000600082015250565b600061501b60118361438a565b915061502682614fe5565b602082019050919050565b6000602082019050818103600083015261504a8161500e565b9050919050565b7f55736572206e6f7420666f756e64000000000000000000000000000000000000600082015250565b6000615087600e8361438a565b915061509282615051565b602082019050919050565b600060208201905081810360008301526150b68161507a565b9050919050565b7f4f6e6c79206275796572732063616e2063616c6c207468697300000000000000600082015250565b60006150f360198361438a565b91506150fe826150bd565b602082019050919050565b60006020820190508181036000830152615122816150e6565b9050919050565b7f496e76616c6964206c616e642049440000000000000000000000000000000000600082015250565b600061515f600f8361438a565b915061516a82615129565b602082019050919050565b6000602082019050818103600083015261518e81615152565b9050919050565b7f4c616e64206e6f7420617661696c61626c650000000000000000000000000000600082015250565b60006151cb60128361438a565b91506151d682615195565b602082019050919050565b600060208201905081810360008301526151fa816151be565b9050919050565b7f5061796d656e7420616d6f756e7420646f6573206e6f74206d61746368206c6160008201527f6e64207072696365000000000000000000000000000000000000000000000000602082015250565b600061525d60288361438a565b915061526882615201565b604082019050919050565b6000602082019050818103600083015261528c81615250565b9050919050565b7f53656c6c65722063616e6e6f742072657175657374206f776e206c616e640000600082015250565b60006152c9601e8361438a565b91506152d482615293565b602082019050919050565b600060208201905081810360008301526152f8816152bc565b9050919050565b7f52657175657374206e6f7420617070726f766564000000000000000000000000600082015250565b600061533560148361438a565b9150615340826152ff565b602082019050919050565b6000602082019050818103600083015261536481615328565b9050919050565b7f5061796d656e74206e6f74207265636569766564000000000000000000000000600082015250565b60006153a160148361438a565b91506153ac8261536b565b602082019050919050565b600060208201905081810360008301526153d081615394565b9050919050565b7f5061796d656e7420746f2073656c6c6572206661696c65640000000000000000600082015250565b600061540d60188361438a565b9150615418826153d7565b602082019050919050565b6000602082019050818103600083015261543c81615400565b9050919050565b7f496e76616c696420726f6c650000000000000000000000000000000000000000600082015250565b6000615479600c8361438a565b915061548482615443565b602082019050919050565b600060208201905081810360008301526154a88161546c565b9050919050565b7f5573657220616c72656164792072656769737465726564000000000000000000600082015250565b60006154e560178361438a565b91506154f0826154af565b602082019050919050565b60006020820190508181036000830152615514816154d8565b9050919050565b7f4e616d652063616e6e6f7420626520656d707479000000000000000000000000600082015250565b600061555160148361438a565b915061555c8261551b565b602082019050919050565b6000602082019050818103600083015261558081615544565b9050919050565b600060408201905061559c600083018561437b565b81810360208301526155ae818461439b565b90509392505050565b7f4e6f7420617574686f72697a6564000000000000000000000000000000000000600082015250565b60006155ed600e8361438a565b91506155f8826155b7565b602082019050919050565b6000602082019050818103600083015261561c816155e0565b9050919050565b7f526566756e64206661696c656400000000000000000000000000000000000000600082015250565b6000615659600d8361438a565b915061566482615623565b602082019050919050565b600060208201905081810360008301526156888161564c565b905091905056fea2646970667358221220f27aaf7c7ea609d1b80825379acbe4f8423f49b0e9602f874edf0c93e45fb02764736f6c63430008140033",
  "linkReferences": {},
  "deployedLinkReferences": {}
}