{
  "_format": "hh-sol-artifact-1",
  "contractName": "LandRegistryV2",
  "sourceName": "contracts/LandRegistryV2.sol",
  "abi": [
    {
      "inputs": [
        {
          "internalType": "address",
          "name": "_inspector",
          "type": "address"
        }
      ],
      "stateMutability": "nonpayable",
      "type": "constructor"
    },
    {
      "anonymous": false,
      "inputs": [
        {
          "indexed": true,
          "internalType": "uint256",
          "name": "landId",
          "type": "uint256"
        },
        {
          "indexed": true,
          "internalType": "address",
          "name": "seller",
          "type": "address"
        },
        {
          "indexed": false,
          "internalType": "string",
          "name": "location",
          "type": "string"
        },
        {
          "indexed": false,
          "internalType": "uint256",
          "name": "price",
          "type": "uint256"
        }
      ],
      "name": "LandRegistered",
      "type": "event"
    },
    {
      "anonymous": false,
      "inputs": [
        {
          "indexed": true,
          "internalType": "uint256",
          "name": "requestId",
          "type": "uint256"
        },
        {
          "indexed": true,
          "internalType": "uint256",
          "name": "landId",
          "type": "uint256"
        },
        {
          "indexed": true,
          "internalType": "address",
          "name": "buyer",
          "type": "address"
        },
        {
          "indexed": false,
          "internalType": "uint256",
          "name": "price",
          "type": "uint256"
        }
      ],
      "name": "LandRequestCreated",
      "type": "event"
    },
    {
      "anonymous": false,
      "inputs": [
        {
          "indexed": true,
          "internalType": "uint256",
          "name": "requestId",
          "type": "uint256"
        },
        {
          "indexed": true,
          "internalType": "address",
          "name": "buyer",
          "type": "address"
        },
        {
          "indexed": false,
          "internalType": "uint256",
          "name": "amount",
          "type": "uint256"
        }
      ],
      "name": "PaymentReceived",
      "type": "event"
    },
    {
      "anonymous": false,
      "inputs": [
        {
          "indexed": true,
          "internalType": "uint256",
          "name": "requestId",
          "type": "uint256"
        },
        {
          "indexed": true,
          "internalType": "uint256",
          "name": "landId",
          "type": "uint256"
        }
      ],
      "name": "RequestApproved",
      "type": "event"
    },
    {
      "anonymous": false,
      "inputs": [
        {
          "indexed": true,
          "internalType": "uint256",
          "name": "requestId",
          "type": "uint256"
        }
      ],
      "name": "RequestRejected",
      "type": "event"
    },
    {
      "anonymous": false,
      "inputs": [
        {
          "indexed": true,
          "internalType": "uint256",
          "name": "requestId",
          "type": "uint256"
        },
        {
          "indexed": true,
          "internalType": "uint256",
          "name": "landId",
          "type": "uint256"
        },
        {
          "indexed": true,
          "internalType": "address",
          "name": "newOwner",
          "type": "address"
        }
      ],
      "name": "TransferFinalized",
      "type": "event"
    },
    {
      "anonymous": false,
      "inputs": [
        {
          "indexed": true,
          "internalType": "address",
          "name": "walletAddress",
          "type": "address"
        },
        {
          "indexed": false,
          "internalType": "enum LandRegistryV2.UserRole",
          "name": "role",
          "type": "uint8"
        },
        {
          "indexed": false,
          "internalType": "string",
          "name": "name",
          "type": "string"
        }
      ],
      "name": "UserRegistered",
      "type": "event"
    },
    {
      "anonymous": false,
      "inputs": [
        {
          "indexed": true,
          "internalType": "address",
          "name": "walletAddress",
          "type": "address"
        }
      ],
      "name": "UserVerified",
      "type": "event"
    },
    {
      "inputs": [
        {
          "internalType": "uint256",
          "name": "_requestId",
          "type": "uint256"
        }
      ],
      "name": "approveLandRequest",
      "outputs": [],
      "stateMutability": "nonpayable",
      "type": "function"
    },
    {
      "inputs": [],
      "name": "contractOwner",
      "outputs": [
        {
          "internalType": "address",
          "name": "",
          "type": "address"
        }
      ],
      "stateMutability": "view",
      "type": "function"
    },
    {
      "inputs": [
        {
          "internalType": "uint256",
          "name": "_requestId",
          "type": "uint256"
        }
      ],
      "name": "finalizeTransfer",
      "outputs": [],
      "stateMutability": "nonpayable",
      "type": "function"
    },
    {
      "inputs": [],
      "name": "getAvailableLands",
      "outputs": [
        {
          "components": [
            {
              "internalType": "uint256",
              "name": "id",
              "type": "uint256"
            },
            {
              "internalType": "address",
              "name": "seller",
              "type": "address"
            },
            {
              "internalType": "string",
              "name": "location",
              "type": "string"
            },
            {
              "internalType": "uint256",
              "name": "area",
              "type": "uint256"
            },
            {
              "internalType": "uint256",
              "name": "price",
              "type": "uint256"
            },
            {
              "internalType": "string",
              "name": "imageURL",
              "type": "string"
            },
            {
              "internalType": "bool",
              "name": "isAvailable",
              "type": "bool"
            },
            {
              "internalType": "uint256",
              "name": "registrationDate",
              "type": "uint256"
            }
          ],
          "internalType": "struct LandRegistryV2.Land[]",
          "name": "",
          "type": "tuple[]"
        }
      ],
      "stateMutability": "view",
      "type": "function"
    },
    {
      "inputs": [
        {
          "internalType": "address",
          "name": "_buyer",
          "type": "address"
        }
      ],
      "name": "getBuyerRequests",
      "outputs": [
        {
          "components": [
            {
              "internalType": "uint256",
              "name": "id",
              "type": "uint256"
            },
            {
              "internalType": "uint256",
              "name": "landId",
              "type": "uint256"
            },
            {
              "internalType": "address",
              "name": "buyer",
              "type": "address"
            },
            {
              "internalType": "address",
              "name": "seller",
              "type": "address"
            },
            {
              "internalType": "uint256",
              "name": "price",
              "type": "uint256"
            },
            {
              "internalType": "enum LandRegistryV2.LandRequestStatus",
              "name": "status",
              "type": "uint8"
            },
            {
              "internalType": "bool",
              "name": "paymentReceived",
              "type": "bool"
            },
            {
              "internalType": "uint256",
              "name": "createdDate",
              "type": "uint256"
            },
            {
              "internalType": "uint256",
              "name": "approvedDate",
              "type": "uint256"
            },
            {
              "internalType": "uint256",
              "name": "completedDate",
              "type": "uint256"
            }
          ],
          "internalType": "struct LandRegistryV2.LandRequest[]",
          "name": "",
          "type": "tuple[]"
        }
      ],
      "stateMutability": "view",
      "type": "function"
    },
    {
      "inputs": [
        {
          "internalType": "uint256",
          "name": "_landId",
          "type": "uint256"
        }
      ],
      "name": "getLand",
      "outputs": [
        {
          "components": [
            {
              "internalType": "uint256",
              "name": "id",
              "type": "uint256"
            },
            {
              "internalType": "address",
              "name": "seller",
              "type": "address"
            },
            {
              "internalType": "string",
              "name": "location",
              "type": "string"
            },
            {
              "internalType": "uint256",
              "name": "area",
              "type": "uint256"
            },
            {
              "internalType": "uint256",
              "name": "price",
              "type": "uint256"
            },
            {
              "internalType": "string",
              "name": "imageURL",
              "type": "string"
            },
            {
              "internalType": "bool",
              "name": "isAvailable",
              "type": "bool"
            },
            {
              "internalType": "uint256",
              "name": "registrationDate",
              "type": "uint256"
            }
          ],
          "internalType": "struct LandRegistryV2.Land",
          "name": "",
          "type": "tuple"
        }
      ],
      "stateMutability": "view",
      "type": "function"
    },
    {
      "inputs": [
        {
          "internalType": "uint256",
          "name": "_requestId",
          "type": "uint256"
        }
      ],
      "name": "getLandRequest",
      "outputs": [
        {
          "components": [
            {
              "internalType": "uint256",
              "name": "id",
              "type": "uint256"
            },
            {
              "internalType": "uint256",
              "name": "landId",
              "type": "uint256"
            },
            {
              "internalType": "address",
              "name": "buyer",
              "type": "address"
            },
            {
              "internalType": "address",
              "name": "seller",
              "type": "address"
            },
            {
              "internalType": "uint256",
              "name": "price",
              "type": "uint256"
            },
            {
              "internalType": "enum LandRegistryV2.LandRequestStatus",
              "name": "status",
              "type": "uint8"
            },
            {
              "internalType": "bool",
              "name": "paymentReceived",
              "type": "bool"
            },
            {
              "internalType": "uint256",
              "name": "createdDate",
              "type": "uint256"
            },
            {
              "internalType": "uint256",
              "name": "approvedDate",
              "type": "uint256"
            },
            {
              "internalType": "uint256",
              "name": "completedDate",
              "type": "uint256"
            }
          ],
          "internalType": "struct LandRegistryV2.LandRequest",
          "name": "",
          "type": "tuple"
        }
      ],
      "stateMutability": "view",
      "type": "function"
    },
    {
      "inputs": [
        {
          "internalType": "address",
          "name": "_seller",
          "type": "address"
        }
      ],
      "name": "getSellerLands",
      "outputs": [
        {
          "components": [
            {
              "internalType": "uint256",
              "name": "id",
              "type": "uint256"
            },
            {
              "internalType": "address",
              "name": "seller",
              "type": "address"
            },
            {
              "internalType": "string",
              "name": "location",
              "type": "string"
            },
            {
              "internalType": "uint256",
              "name": "area",
              "type": "uint256"
            },
            {
              "internalType": "uint256",
              "name": "price",
              "type": "uint256"
            },
            {
              "internalType": "string",
              "name": "imageURL",
              "type": "string"
            },
            {
              "internalType": "bool",
              "name": "isAvailable",
              "type": "bool"
            },
            {
              "internalType": "uint256",
              "name": "registrationDate",
              "type": "uint256"
            }
          ],
          "internalType": "struct LandRegistryV2.Land[]",
          "name": "",
          "type": "tuple[]"
        }
      ],
      "stateMutability": "view",
      "type": "function"
    },
    {
      "inputs": [],
      "name": "getTotalLands",
      "outputs": [
        {
          "internalType": "uint256",
          "name": "",
          "type": "uint256"
        }
      ],
      "stateMutability": "view",
      "type": "function"
    },
    {
      "inputs": [],
      "name": "getTotalRequests",
      "outputs": [
        {
          "internalType": "uint256",
          "name": "",
          "type": "uint256"
        }
      ],
      "stateMutability": "view",
      "type": "function"
    },
    {
      "inputs": [],
      "name": "getUnverifiedUsers",
      "outputs": [
        {
          "components": [
            {
              "internalType": "address",
              "name": "walletAddress",
              "type": "address"
            },
            {
              "internalType": "enum LandRegistryV2.UserRole",
              "name": "role",
              "type": "uint8"
            },
            {
              "internalType": "string",
              "name": "name",
              "type": "string"
            },
            {
              "internalType": "bool",
              "name": "isVerified",
              "type": "bool"
            },
            {
              "internalType": "uint256",
              "name": "registrationDate",
              "type": "uint256"
            }
          ],
          "internalType": "struct LandRegistryV2.User[]",
          "name": "",
          "type": "tuple[]"
        }
      ],
      "stateMutability": "view",
      "type": "function"
    },
    {
      "inputs": [
        {
          "internalType": "address",
          "name": "_userAddress",
          "type": "address"
        }
      ],
      "name": "getUser",
      "outputs": [
        {
          "components": [
            {
              "internalType": "address",
              "name": "walletAddress",
              "type": "address"
            },
            {
              "internalType": "enum LandRegistryV2.UserRole",
              "name": "role",
              "type": "uint8"
            },
            {
              "internalType": "string",
              "name": "name",
              "type": "string"
            },
            {
              "internalType": "bool",
              "name": "isVerified",
              "type": "bool"
            },
            {
              "internalType": "uint256",
              "name": "registrationDate",
              "type": "uint256"
            }
          ],
          "internalType": "struct LandRegistryV2.User",
          "name": "",
          "type": "tuple"
        }
      ],
      "stateMutability": "view",
      "type": "function"
    },
    {
      "inputs": [],
      "name": "inspector",
      "outputs": [
        {
          "internalType": "address",
          "name": "",
          "type": "address"
        }
      ],
      "stateMutability": "view",
      "type": "function"
    },
    {
      "inputs": [],
      "name": "landCounter",
      "outputs": [
        {
          "internalType": "uint256",
          "name": "",
          "type": "uint256"
        }
      ],
      "stateMutability": "view",
      "type": "function"
    },
    {
      "inputs": [
        {
          "internalType": "uint256",
          "name": "",
          "type": "uint256"
        },
        {
          "internalType": "uint256",
          "name": "",
          "type": "uint256"
        }
      ],
      "name": "landRequestHistory",
      "outputs": [
        {
          "internalType": "address",
          "name": "",
          "type": "address"
        }
      ],
      "stateMutability": "view",
      "type": "function"
    },
    {
      "inputs": [
        {
          "internalType": "uint256",
          "name": "",
          "type": "uint256"
        }
      ],
      "name": "landRequests",
      "outputs": [
        {
          "internalType": "uint256",
          "name": "id",
          "type": "uint256"
        },
        {
          "internalType": "uint256",
          "name": "landId",
          "type": "uint256"
        },
        {
          "internalType": "address",
          "name": "buyer",
          "type": "address"
        },
        {
          "internalType": "address",
          "name": "seller",
          "type": "address"
        },
        {
          "internalType": "uint256",
          "name": "price",
          "type": "uint256"
        },
        {
          "internalType": "enum LandRegistryV2.LandRequestStatus",
          "name": "status",
          "type": "uint8"
        },
        {
          "internalType": "bool",
          "name": "paymentReceived",
          "type": "bool"
        },
        {
          "internalType": "uint256",
          "name": "createdDate",
          "type": "uint256"
        },
        {
          "internalType": "uint256",
          "name": "approvedDate",
          "type": "uint256"
        },
        {
          "internalType": "uint256",
          "name": "completedDate",
          "type": "uint256"
        }
      ],
      "stateMutability": "view",
      "type": "function"
    },
    {
      "inputs": [
        {
          "internalType": "uint256",
          "name": "",
          "type": "uint256"
        }
      ],
      "name": "lands",
      "outputs": [
        {
          "internalType": "uint256",
          "name": "id",
          "type": "uint256"
        },
        {
          "internalType": "address",
          "name": "seller",
          "type": "address"
        },
        {
          "internalType": "string",
          "name": "location",
          "type": "string"
        },
        {
          "internalType": "uint256",
          "name": "area",
          "type": "uint256"
        },
        {
          "internalType": "uint256",
          "name": "price",
          "type": "uint256"
        },
        {
          "internalType": "string",
          "name": "imageURL",
          "type": "string"
        },
        {
          "internalType": "bool",
          "name": "isAvailable",
          "type": "bool"
        },
        {
          "internalType": "uint256",
          "name": "registrationDate",
          "type": "uint256"
        }
      ],
      "stateMutability": "view",
      "type": "function"
    },
    {
      "inputs": [
        {
          "internalType": "string",
          "name": "_location",
          "type": "string"
        },
        {
          "internalType": "uint256",
          "name": "_area",
          "type": "uint256"
        },
        {
          "internalType": "uint256",
          "name": "_price",
          "type": "uint256"
        },
        {
          "internalType": "string",
          "name": "_imageURL",
          "type": "string"
        }
      ],
      "name": "registerLand",
      "outputs": [],
      "stateMutability": "nonpayable",
      "type": "function"
    },
    {
      "inputs": [
        {
          "internalType": "enum LandRegistryV2.UserRole",
          "name": "_role",
          "type": "uint8"
        },
        {
          "internalType": "string",
          "name": "_name",
          "type": "string"
        }
      ],
      "name": "registerUser",
      "outputs": [],
      "stateMutability": "nonpayable",
      "type": "function"
    },
    {
      "inputs": [
        {
          "internalType": "uint256",
          "name": "",
          "type": "uint256"
        }
      ],
      "name": "registeredUsers",
      "outputs": [
        {
          "internalType": "address",
          "name": "",
          "type": "address"
        }
      ],
      "stateMutability": "view",
      "type": "function"
    },
    {
      "inputs": [
        {
          "internalType": "uint256",
          "name": "_requestId",
          "type": "uint256"
        }
      ],
      "name": "rejectLandRequest",
      "outputs": [],
      "stateMutability": "nonpayable",
      "type": "function"
    },
    {
      "inputs": [],
      "name": "requestCounter",
      "outputs": [
        {
          "internalType": "uint256",
          "name": "",
          "type": "uint256"
        }
      ],
      "stateMutability": "view",
      "type": "function"
    },
    {
      "inputs": [
        {
          "internalType": "uint256",
          "name": "_landId",
          "type": "uint256"
        }
      ],
      "name": "requestLand",
      "outputs": [],
      "stateMutability": "payable",
      "type": "function"
    },
    {
      "inputs": [
        {
          "internalType": "address",
          "name": "_newInspector",
          "type": "address"
        }
      ],
      "name": "setInspector",
      "outputs": [],
      "stateMutability": "nonpayable",
      "type": "function"
    },
    {
      "inputs": [
        {
          "internalType": "address",
          "name": "",
          "type": "address"
        },
        {
          "internalType": "uint256",
          "name": "",
          "type": "uint256"
        }
      ],
      "name": "userLands",
      "outputs": [
        {
          "internalType": "uint256",
          "name": "",
          "type": "uint256"
        }
      ],
      "stateMutability": "view",
      "type": "function"
    },
    {
      "inputs": [
        {
          "internalType": "address",
          "name": "",
          "type": "address"
        },
        {
          "internalType": "uint256",
          "name": "",
          "type": "uint256"
        }
      ],
      "name": "userRequests",
      "outputs": [
        {
          "internalType": "uint256",
          "name": "",
          "type": "uint256"
        }
      ],
      "stateMutability": "view",
      "type": "function"
    },
    {
      "inputs": [
        {
          "internalType": "address",
          "name": "",
          "type": "address"
        }
      ],
      "name": "users",
      "outputs": [
        {
          "internalType": "address",
          "name": "walletAddress",
          "type": "address"
        },
        {
          "internalType": "enum LandRegistryV2.UserRole",
          "name": "role",
          "type": "uint8"
        },
        {
          "internalType": "string",
          "name": "name",
          "type": "string"
        },
        {
          "internalType": "bool",
          "name": "isVerified",
          "type": "bool"
        },
        {
          "internalType": "uint256",
          "name": "registrationDate",
          "type": "uint256"
        }
      ],
      "stateMutability": "view",
      "type": "function"
    },
    {
      "inputs": [
        {
          "internalType": "address",
          "name": "_userAddress",
          "type": "address"
        }
      ],
      "name": "verifyUser",
      "outputs": [],
      "stateMutability": "nonpayable",
      "type": "function"
    },
    {
      "inputs": [],
      "name": "withdrawBalance",
      "outputs": [],
      "stateMutability": "nonpayable",
      "type": "function"
    },
    {
      "stateMutability": "payable",
      "type": "receive"
    }
  ],
  "bytecode": "0x608060405260006009556000600a553480156200001b57600080fd5b5060405162006101380380620061018339818101604052810190620000419190620001a5565b600073ffffffffffffffffffffffffffffffffffffffff168173ffffffffffffffffffffffffffffffffffffffff1603620000b3576040517f08c379a0000000000000000000000000000000000000000000000000000000008152600401620000aa9062000238565b60405180910390fd5b806000806101000a81548173ffffffffffffffffffffffffffffffffffffffff021916908373ffffffffffffffffffffffffffffffffffffffff16021790555033600160006101000a81548173ffffffffffffffffffffffffffffffffffffffff021916908373ffffffffffffffffffffffffffffffffffffffff160217905550506200025a565b600080fd5b600073ffffffffffffffffffffffffffffffffffffffff82169050919050565b60006200016d8262000140565b9050919050565b6200017f8162000160565b81146200018b57600080fd5b50565b6000815190506200019f8162000174565b92915050565b600060208284031215620001be57620001bd6200013b565b5b6000620001ce848285016200018e565b91505092915050565b600082825260208201905092915050565b7f496e76616c696420696e73706563746f72206164647265737300000000000000600082015250565b600062000220601983620001d7565b91506200022d82620001e8565b602082019050919050565b60006020820190508181036000830152620002538162000211565b9050919050565b615e97806200026a6000396000f3fe6080604052600436106101c65760003560e01c8063842e7dba116100f7578063d29bcc5c11610095578063ed2cee9e11610064578063ed2cee9e1461069c578063eed6e70c146106c7578063f02dd53f14610704578063f0e22d5214610741576101cd565b8063d29bcc5c146105c9578063dc219adc146105f2578063e261f1e51461062f578063e8b185da14610673576101cd565b80639de1322e116100d15780639de1322e146105095780639e29ce1814610532578063a87430ba1461055d578063ce606ee01461059e576101cd565b8063842e7dba146104885780638d61a156146104b3578063973a814e146104de576101cd565b80634e5cbf61116101645780636b5b1ccc1161013e5780636b5b1ccc146103b55780636f77926b146103f2578063717c38141461042f5780637259e0f81461044b576101cd565b80634e5cbf611461032f5780635fd8c710146103585780636a29b8d71461036f576101cd565b8063263cb6b6116101a0578063263cb6b614610275578063352a0f09146102b25780634445ac4d146102dd5780634d81312014610306576101cd565b806305682642146101d25780631d4aab65146101fb57806322810d6e14610238576101cd565b366101cd57005b600080fd5b3480156101de57600080fd5b506101f960048036038101906101f491906140d6565b61076c565b005b34801561020757600080fd5b50610222600480360381019061021d91906141d3565b610b7c565b60405161022f919061442c565b60405180910390f35b34801561024457600080fd5b5061025f600480360381019061025a91906141d3565b610e28565b60405161026c9190614646565b60405180910390f35b34801561028157600080fd5b5061029c60048036038101906102979190614668565b611153565b6040516102a991906146b7565b60405180910390f35b3480156102be57600080fd5b506102c7611184565b6040516102d49190614852565b60405180910390f35b3480156102e957600080fd5b5061030460048036038101906102ff9190614874565b611561565b005b34801561031257600080fd5b5061032d600480360381019061032891906141d3565b6117ce565b005b34801561033b57600080fd5b50610356600480360381019061035191906141d3565b611a5e565b005b34801561036457600080fd5b5061036d611ba0565b005b34801561037b57600080fd5b5061039660048036038101906103919190614874565b611d04565b6040516103ac9a999897969594939291906148ce565b60405180910390f35b3480156103c157600080fd5b506103dc60048036038101906103d79190614874565b611db2565b6040516103e99190614a36565b60405180910390f35b3480156103fe57600080fd5b50610419600480360381019061041491906141d3565b611f6f565b6040516104269190614ac8565b60405180910390f35b61044960048036038101906104449190614874565b6121e1565b005b34801561045757600080fd5b50610472600480360381019061046d9190614874565b6128e2565b60405161047f9190614aea565b60405180910390f35b34801561049457600080fd5b5061049d612921565b6040516104aa91906146b7565b60405180910390f35b3480156104bf57600080fd5b506104c861292b565b6040516104d59190614646565b60405180910390f35b3480156104ea57600080fd5b506104f3612c42565b60405161050091906146b7565b60405180910390f35b34801561051557600080fd5b50610530600480360381019061052b9190614874565b612c48565b005b34801561053e57600080fd5b506105476131bf565b60405161055491906146b7565b60405180910390f35b34801561056957600080fd5b50610584600480360381019061057f91906141d3565b6131c5565b604051610595959493929190614b5e565b60405180910390f35b3480156105aa57600080fd5b506105b36132bd565b6040516105c09190614aea565b60405180910390f35b3480156105d557600080fd5b506105f060048036038101906105eb9190614bdd565b6132e3565b005b3480156105fe57600080fd5b5061061960048036038101906106149190614668565b613661565b60405161062691906146b7565b60405180910390f35b34801561063b57600080fd5b5061065660048036038101906106519190614874565b613692565b60405161066a989796959493929190614c39565b60405180910390f35b34801561067f57600080fd5b5061069a60048036038101906106959190614874565b613817565b005b3480156106a857600080fd5b506106b1613b45565b6040516106be9190614aea565b60405180910390f35b3480156106d357600080fd5b506106ee60048036038101906106e99190614cc5565b613b69565b6040516106fb9190614aea565b60405180910390f35b34801561071057600080fd5b5061072b60048036038101906107269190614874565b613bb7565b6040516107389190614dbc565b60405180910390f35b34801561074d57600080fd5b50610756613df3565b60405161076391906146b7565b60405180910390f35b600360003373ffffffffffffffffffffffffffffffffffffffff1673ffffffffffffffffffffffffffffffffffffffff16815260200190815260200160002060020160009054906101000a900460ff166107fb576040517f08c379a00000000000000000000000000000000000000000000000000000000081526004016107f290614e2a565b60405180910390fd5b6001600281111561080f5761080e61424a565b5b600360003373ffffffffffffffffffffffffffffffffffffffff1673ffffffffffffffffffffffffffffffffffffffff16815260200190815260200160002060000160149054906101000a900460ff1660028111156108715761087061424a565b5b146108b1576040517f08c379a00000000000000000000000000000000000000000000000000000000081526004016108a890614e96565b60405180910390fd5b600083116108f4576040517f08c379a00000000000000000000000000000000000000000000000000000000081526004016108eb90614f02565b60405180910390fd5b60008211610937576040517f08c379a000000000000000000000000000000000000000000000000000000000815260040161092e90614f6e565b60405180910390fd5b600084511161097b576040517f08c379a000000000000000000000000000000000000000000000000000000000815260040161097290614fda565b60405180910390fd5b6009600081548092919061098e90615029565b9190505550600060095490506040518061010001604052808281526020013373ffffffffffffffffffffffffffffffffffffffff16815260200186815260200185815260200184815260200183815260200160011515815260200142815250600460008381526020019081526020016000206000820151816000015560208201518160010160006101000a81548173ffffffffffffffffffffffffffffffffffffffff021916908373ffffffffffffffffffffffffffffffffffffffff1602179055506040820151816002019081610a66919061527d565b50606082015181600301556080820151816004015560a0820151816005019081610a90919061527d565b5060c08201518160060160006101000a81548160ff02191690831515021790555060e08201518160070155905050600660003373ffffffffffffffffffffffffffffffffffffffff1673ffffffffffffffffffffffffffffffffffffffff1681526020019081526020016000208190806001815401808255809150506001900390600052602060002001600090919091909150553373ffffffffffffffffffffffffffffffffffffffff16817f09f87bd638cbe9814396205461896d192bb615baa655b37f43ef8414a75b7fd58786604051610b6d92919061534f565b60405180910390a35050505050565b60606000600760008473ffffffffffffffffffffffffffffffffffffffff1673ffffffffffffffffffffffffffffffffffffffff168152602001908152602001600020805480602002602001604051908101604052809291908181526020018280548015610c0957602002820191906000526020600020905b815481526020019060010190808311610bf5575b505050505090506000815167ffffffffffffffff811115610c2d57610c2c613f75565b5b604051908082528060200260200182016040528015610c6657816020015b610c53613dfd565b815260200190600190039081610c4b5790505b50905060005b8251811015610e1d5760056000848381518110610c8c57610c8b61537f565b5b602002602001015181526020019081526020016000206040518061014001604052908160008201548152602001600182015481526020016002820160009054906101000a900473ffffffffffffffffffffffffffffffffffffffff1673ffffffffffffffffffffffffffffffffffffffff1673ffffffffffffffffffffffffffffffffffffffff1681526020016003820160009054906101000a900473ffffffffffffffffffffffffffffffffffffffff1673ffffffffffffffffffffffffffffffffffffffff1673ffffffffffffffffffffffffffffffffffffffff168152602001600482015481526020016005820160009054906101000a900460ff166003811115610d9d57610d9c61424a565b5b6003811115610daf57610dae61424a565b5b81526020016005820160019054906101000a900460ff161515151581526020016006820154815260200160078201548152602001600882015481525050828281518110610dff57610dfe61537f565b5b60200260200101819052508080610e1590615029565b915050610c6c565b508092505050919050565b60606000600660008473ffffffffffffffffffffffffffffffffffffffff1673ffffffffffffffffffffffffffffffffffffffff168152602001908152602001600020805480602002602001604051908101604052809291908181526020018280548015610eb557602002820191906000526020600020905b815481526020019060010190808311610ea1575b505050505090506000815167ffffffffffffffff811115610ed957610ed8613f75565b5b604051908082528060200260200182016040528015610f1257816020015b610eff613e90565b815260200190600190039081610ef75790505b50905060005b82518110156111485760046000848381518110610f3857610f3761537f565b5b6020026020010151815260200190815260200160002060405180610100016040529081600082015481526020016001820160009054906101000a900473ffffffffffffffffffffffffffffffffffffffff1673ffffffffffffffffffffffffffffffffffffffff1673ffffffffffffffffffffffffffffffffffffffff168152602001600282018054610fca906150a0565b80601f0160208091040260200160405190810160405280929190818152602001828054610ff6906150a0565b80156110435780601f1061101857610100808354040283529160200191611043565b820191906000526020600020905b81548152906001019060200180831161102657829003601f168201915b505050505081526020016003820154815260200160048201548152602001600582018054611070906150a0565b80601f016020809104026020016040519081016040528092919081815260200182805461109c906150a0565b80156110e95780601f106110be576101008083540402835291602001916110e9565b820191906000526020600020905b8154815290600101906020018083116110cc57829003601f168201915b505050505081526020016006820160009054906101000a900460ff1615151515815260200160078201548152505082828151811061112a5761112961537f565b5b6020026020010181905250808061114090615029565b915050610f18565b508092505050919050565b6007602052816000526040600020818154811061116f57600080fd5b90600052602060002001600091509150505481565b60606000805b60028054905081101561124b5760036000600283815481106111af576111ae61537f565b5b9060005260206000200160009054906101000a900473ffffffffffffffffffffffffffffffffffffffff1673ffffffffffffffffffffffffffffffffffffffff1673ffffffffffffffffffffffffffffffffffffffff16815260200190815260200160002060020160009054906101000a900460ff1661123857818061123490615029565b9250505b808061124390615029565b91505061118a565b5060008167ffffffffffffffff81111561126857611267613f75565b5b6040519080825280602002602001820160405280156112a157816020015b61128e613eed565b8152602001906001900390816112865790505b5090506000805b6002805490508110156115575760036000600283815481106112cd576112cc61537f565b5b9060005260206000200160009054906101000a900473ffffffffffffffffffffffffffffffffffffffff1673ffffffffffffffffffffffffffffffffffffffff1673ffffffffffffffffffffffffffffffffffffffff16815260200190815260200160002060020160009054906101000a900460ff1661154457600360006002838154811061135f5761135e61537f565b5b9060005260206000200160009054906101000a900473ffffffffffffffffffffffffffffffffffffffff1673ffffffffffffffffffffffffffffffffffffffff1673ffffffffffffffffffffffffffffffffffffffff1681526020019081526020016000206040518060a00160405290816000820160009054906101000a900473ffffffffffffffffffffffffffffffffffffffff1673ffffffffffffffffffffffffffffffffffffffff1673ffffffffffffffffffffffffffffffffffffffff1681526020016000820160149054906101000a900460ff16600281111561144a5761144961424a565b5b600281111561145c5761145b61424a565b5b8152602001600182018054611470906150a0565b80601f016020809104026020016040519081016040528092919081815260200182805461149c906150a0565b80156114e95780601f106114be576101008083540402835291602001916114e9565b820191906000526020600020905b8154815290600101906020018083116114cc57829003601f168201915b505050505081526020016002820160009054906101000a900460ff1615151515815260200160038201548152505083838151811061152a5761152961537f565b5b6020026020010181905250818061154090615029565b9250505b808061154f90615029565b9150506112a8565b5081935050505090565b600360003373ffffffffffffffffffffffffffffffffffffffff1673ffffffffffffffffffffffffffffffffffffffff16815260200190815260200160002060020160009054906101000a900460ff166115f0576040517f08c379a00000000000000000000000000000000000000000000000000000000081526004016115e790614e2a565b60405180910390fd5b6000811180156116025750600a548111155b611641576040517f08c379a0000000000000000000000000000000000000000000000000000000008152600401611638906153fa565b60405180910390fd5b60006005600083815260200190815260200160002090506000600381111561166c5761166b61424a565b5b8160050160009054906101000a900460ff1660038111156116905761168f61424a565b5b146116d0576040517f08c379a00000000000000000000000000000000000000000000000000000000081526004016116c790615466565b60405180910390fd5b8060030160009054906101000a900473ffffffffffffffffffffffffffffffffffffffff1673ffffffffffffffffffffffffffffffffffffffff163373ffffffffffffffffffffffffffffffffffffffff1614611762576040517f08c379a0000000000000000000000000000000000000000000000000000000008152600401611759906154d2565b60405180910390fd5b60018160050160006101000a81548160ff0219169083600381111561178a5761178961424a565b5b02179055504281600701819055508060010154827f99593786774c6f33049716fd956b1672f46813adf0f67f51f81345b36ba0b84760405160405180910390a35050565b60008054906101000a900473ffffffffffffffffffffffffffffffffffffffff1673ffffffffffffffffffffffffffffffffffffffff163373ffffffffffffffffffffffffffffffffffffffff161461185c576040517f08c379a00000000000000000000000000000000000000000000000000000000081526004016118539061553e565b60405180910390fd5b600073ffffffffffffffffffffffffffffffffffffffff16600360008373ffffffffffffffffffffffffffffffffffffffff1673ffffffffffffffffffffffffffffffffffffffff16815260200190815260200160002060000160009054906101000a900473ffffffffffffffffffffffffffffffffffffffff1673ffffffffffffffffffffffffffffffffffffffff160361192d576040517f08c379a0000000000000000000000000000000000000000000000000000000008152600401611924906155aa565b60405180910390fd5b600360008273ffffffffffffffffffffffffffffffffffffffff1673ffffffffffffffffffffffffffffffffffffffff16815260200190815260200160002060020160009054906101000a900460ff16156119bd576040517f08c379a00000000000000000000000000000000000000000000000000000000081526004016119b490615616565b60405180910390fd5b6001600360008373ffffffffffffffffffffffffffffffffffffffff1673ffffffffffffffffffffffffffffffffffffffff16815260200190815260200160002060020160006101000a81548160ff0219169083151502179055508073ffffffffffffffffffffffffffffffffffffffff167fa6625d2d26e786e2f473111bea4b2fcdbbf1863d883a2359989ce3a103d2972a60405160405180910390a250565b600160009054906101000a900473ffffffffffffffffffffffffffffffffffffffff1673ffffffffffffffffffffffffffffffffffffffff163373ffffffffffffffffffffffffffffffffffffffff1614611aee576040517f08c379a0000000000000000000000000000000000000000000000000000000008152600401611ae590615682565b60405180910390fd5b600073ffffffffffffffffffffffffffffffffffffffff168173ffffffffffffffffffffffffffffffffffffffff1603611b5d576040517f08c379a0000000000000000000000000000000000000000000000000000000008152600401611b54906156ee565b60405180910390fd5b806000806101000a81548173ffffffffffffffffffffffffffffffffffffffff021916908373ffffffffffffffffffffffffffffffffffffffff16021790555050565b60008054906101000a900473ffffffffffffffffffffffffffffffffffffffff1673ffffffffffffffffffffffffffffffffffffffff163373ffffffffffffffffffffffffffffffffffffffff1614611c2e576040517f08c379a0000000000000000000000000000000000000000000000000000000008152600401611c259061553e565b60405180910390fd5b600047905060008060009054906101000a900473ffffffffffffffffffffffffffffffffffffffff1673ffffffffffffffffffffffffffffffffffffffff1682604051611c7a9061573f565b60006040518083038185875af1925050503d8060008114611cb7576040519150601f19603f3d011682016040523d82523d6000602084013e611cbc565b606091505b5050905080611d00576040517f08c379a0000000000000000000000000000000000000000000000000000000008152600401611cf7906157a0565b60405180910390fd5b5050565b60056020528060005260406000206000915090508060000154908060010154908060020160009054906101000a900473ffffffffffffffffffffffffffffffffffffffff16908060030160009054906101000a900473ffffffffffffffffffffffffffffffffffffffff16908060040154908060050160009054906101000a900460ff16908060050160019054906101000a900460ff1690806006015490806007015490806008015490508a565b611dba613dfd565b600082118015611dcc5750600a548211155b611e0b576040517f08c379a0000000000000000000000000000000000000000000000000000000008152600401611e02906153fa565b60405180910390fd5b600560008381526020019081526020016000206040518061014001604052908160008201548152602001600182015481526020016002820160009054906101000a900473ffffffffffffffffffffffffffffffffffffffff1673ffffffffffffffffffffffffffffffffffffffff1673ffffffffffffffffffffffffffffffffffffffff1681526020016003820160009054906101000a900473ffffffffffffffffffffffffffffffffffffffff1673ffffffffffffffffffffffffffffffffffffffff1673ffffffffffffffffffffffffffffffffffffffff168152602001600482015481526020016005820160009054906101000a900460ff166003811115611f1957611f1861424a565b5b6003811115611f2b57611f2a61424a565b5b81526020016005820160019054906101000a900460ff1615151515815260200160068201548152602001600782015481526020016008820154815250509050919050565b611f77613eed565b600073ffffffffffffffffffffffffffffffffffffffff16600360008473ffffffffffffffffffffffffffffffffffffffff1673ffffffffffffffffffffffffffffffffffffffff16815260200190815260200160002060000160009054906101000a900473ffffffffffffffffffffffffffffffffffffffff1673ffffffffffffffffffffffffffffffffffffffff1603612048576040517f08c379a000000000000000000000000000000000000000000000000000000000815260040161203f9061580c565b60405180910390fd5b600360008373ffffffffffffffffffffffffffffffffffffffff1673ffffffffffffffffffffffffffffffffffffffff1681526020019081526020016000206040518060a00160405290816000820160009054906101000a900473ffffffffffffffffffffffffffffffffffffffff1673ffffffffffffffffffffffffffffffffffffffff1673ffffffffffffffffffffffffffffffffffffffff1681526020016000820160149054906101000a900460ff16600281111561210d5761210c61424a565b5b600281111561211f5761211e61424a565b5b8152602001600182018054612133906150a0565b80601f016020809104026020016040519081016040528092919081815260200182805461215f906150a0565b80156121ac5780601f10612181576101008083540402835291602001916121ac565b820191906000526020600020905b81548152906001019060200180831161218f57829003601f168201915b505050505081526020016002820160009054906101000a900460ff161515151581526020016003820154815250509050919050565b600360003373ffffffffffffffffffffffffffffffffffffffff1673ffffffffffffffffffffffffffffffffffffffff16815260200190815260200160002060020160009054906101000a900460ff16612270576040517f08c379a000000000000000000000000000000000000000000000000000000000815260040161226790614e2a565b60405180910390fd5b6002808111156122835761228261424a565b5b600360003373ffffffffffffffffffffffffffffffffffffffff1673ffffffffffffffffffffffffffffffffffffffff16815260200190815260200160002060000160149054906101000a900460ff1660028111156122e5576122e461424a565b5b14612325576040517f08c379a000000000000000000000000000000000000000000000000000000000815260040161231c90615878565b60405180910390fd5b60008111801561233757506009548111155b612376576040517f08c379a000000000000000000000000000000000000000000000000000000000815260040161236d906158e4565b60405180910390fd5b60006004600083815260200190815260200160002090508060060160009054906101000a900460ff166123de576040517f08c379a00000000000000000000000000000000000000000000000000000000081526004016123d590615950565b60405180910390fd5b80600401543414612424576040517f08c379a000000000000000000000000000000000000000000000000000000000815260040161241b906159e2565b60405180910390fd5b8060010160009054906101000a900473ffffffffffffffffffffffffffffffffffffffff1673ffffffffffffffffffffffffffffffffffffffff163373ffffffffffffffffffffffffffffffffffffffff16036124b6576040517f08c379a00000000000000000000000000000000000000000000000000000000081526004016124ad90615a4e565b60405180910390fd5b600a60008154809291906124c990615029565b91905055506000600a5490506040518061014001604052808281526020018481526020013373ffffffffffffffffffffffffffffffffffffffff1681526020018360010160009054906101000a900473ffffffffffffffffffffffffffffffffffffffff1673ffffffffffffffffffffffffffffffffffffffff16815260200183600401548152602001600060038111156125675761256661424a565b5b815260200160011515815260200142815260200160008152602001600081525060056000838152602001908152602001600020600082015181600001556020820151816001015560408201518160020160006101000a81548173ffffffffffffffffffffffffffffffffffffffff021916908373ffffffffffffffffffffffffffffffffffffffff16021790555060608201518160030160006101000a81548173ffffffffffffffffffffffffffffffffffffffff021916908373ffffffffffffffffffffffffffffffffffffffff1602179055506080820151816004015560a08201518160050160006101000a81548160ff021916908360038111156126715761267061424a565b5b021790555060c08201518160050160016101000a81548160ff02191690831515021790555060e0820151816006015561010082015181600701556101208201518160080155905050600760003373ffffffffffffffffffffffffffffffffffffffff1673ffffffffffffffffffffffffffffffffffffffff168152602001908152602001600020819080600181540180825580915050600190039060005260206000200160009091909190915055600760008360010160009054906101000a900473ffffffffffffffffffffffffffffffffffffffff1673ffffffffffffffffffffffffffffffffffffffff1673ffffffffffffffffffffffffffffffffffffffff16815260200190815260200160002081908060018154018082558091505060019003906000526020600020016000909190919091505560086000848152602001908152602001600020339080600181540180825580915050600190039060005260206000200160009091909190916101000a81548173ffffffffffffffffffffffffffffffffffffffff021916908373ffffffffffffffffffffffffffffffffffffffff16021790555060008260060160006101000a81548160ff0219169083151502179055503373ffffffffffffffffffffffffffffffffffffffff1683827fe45bd06dc2b4b5f08bbdc394c2c200ed48c8e57ef469b20f990715aeca86d3d8856004015460405161288691906146b7565b60405180910390a43373ffffffffffffffffffffffffffffffffffffffff16817f4d3f6d68b42e1e039d6e7323b2b8bdeaf223f453882ce17a5984f4d6aabbdb33346040516128d591906146b7565b60405180910390a3505050565b600281815481106128f257600080fd5b906000526020600020016000915054906101000a900473ffffffffffffffffffffffffffffffffffffffff1681565b6000600954905090565b6060600080600190505b6009548111612989576004600082815260200190815260200160002060060160009054906101000a900460ff161561297657818061297290615029565b9250505b808061298190615029565b915050612935565b5060008167ffffffffffffffff8111156129a6576129a5613f75565b5b6040519080825280602002602001820160405280156129df57816020015b6129cc613e90565b8152602001906001900390816129c45790505b509050600080600190505b6009548111612c38576004600082815260200190815260200160002060060160009054906101000a900460ff1615612c25576004600082815260200190815260200160002060405180610100016040529081600082015481526020016001820160009054906101000a900473ffffffffffffffffffffffffffffffffffffffff1673ffffffffffffffffffffffffffffffffffffffff1673ffffffffffffffffffffffffffffffffffffffff168152602001600282018054612aab906150a0565b80601f0160208091040260200160405190810160405280929190818152602001828054612ad7906150a0565b8015612b245780601f10612af957610100808354040283529160200191612b24565b820191906000526020600020905b815481529060010190602001808311612b0757829003601f168201915b505050505081526020016003820154815260200160048201548152602001600582018054612b51906150a0565b80601f0160208091040260200160405190810160405280929190818152602001828054612b7d906150a0565b8015612bca5780601f10612b9f57610100808354040283529160200191612bca565b820191906000526020600020905b815481529060010190602001808311612bad57829003601f168201915b505050505081526020016006820160009054906101000a900460ff16151515158152602001600782015481525050838381518110612c0b57612c0a61537f565b5b60200260200101819052508180612c2190615029565b9250505b8080612c3090615029565b9150506129ea565b5081935050505090565b600a5481565b60008054906101000a900473ffffffffffffffffffffffffffffffffffffffff1673ffffffffffffffffffffffffffffffffffffffff163373ffffffffffffffffffffffffffffffffffffffff1614612cd6576040517f08c379a0000000000000000000000000000000000000000000000000000000008152600401612ccd9061553e565b60405180910390fd5b600081118015612ce85750600a548111155b612d27576040517f08c379a0000000000000000000000000000000000000000000000000000000008152600401612d1e906153fa565b60405180910390fd5b600060056000838152602001908152602001600020905060016003811115612d5257612d5161424a565b5b8160050160009054906101000a900460ff166003811115612d7657612d7561424a565b5b14612db6576040517f08c379a0000000000000000000000000000000000000000000000000000000008152600401612dad90615aba565b60405180910390fd5b8060050160019054906101000a900460ff16612e07576040517f08c379a0000000000000000000000000000000000000000000000000000000008152600401612dfe90615b26565b60405180910390fd5b60006004600083600101548152602001908152602001600020905060008260030160009054906101000a900473ffffffffffffffffffffffffffffffffffffffff1690506000836001015490506000600660008473ffffffffffffffffffffffffffffffffffffffff1673ffffffffffffffffffffffffffffffffffffffff168152602001908152602001600020905060005b8180549050811015612f585782828281548110612eba57612eb961537f565b5b906000526020600020015403612f45578160018380549050612edc9190615b46565b81548110612eed57612eec61537f565b5b9060005260206000200154828281548110612f0b57612f0a61537f565b5b906000526020600020018190555081805480612f2a57612f29615b7a565b5b60019003818190600052602060002001600090559055612f58565b8080612f5090615029565b915050612e9a565b508460020160009054906101000a900473ffffffffffffffffffffffffffffffffffffffff168460010160006101000a81548173ffffffffffffffffffffffffffffffffffffffff021916908373ffffffffffffffffffffffffffffffffffffffff16021790555060018460060160006101000a81548160ff021916908315150217905550600660008660020160009054906101000a900473ffffffffffffffffffffffffffffffffffffffff1673ffffffffffffffffffffffffffffffffffffffff1673ffffffffffffffffffffffffffffffffffffffff16815260200190815260200160002082908060018154018082558091505060019003906000526020600020016000909190919091505560038560050160006101000a81548160ff0219169083600381111561308f5761308e61424a565b5b021790555042856008018190555060008373ffffffffffffffffffffffffffffffffffffffff1686600401546040516130c79061573f565b60006040518083038185875af1925050503d8060008114613104576040519150601f19603f3d011682016040523d82523d6000602084013e613109565b606091505b505090508061314d576040517f08c379a000000000000000000000000000000000000000000000000000000000815260040161314490615bf5565b60405180910390fd5b8560020160009054906101000a900473ffffffffffffffffffffffffffffffffffffffff1673ffffffffffffffffffffffffffffffffffffffff1683887fcab8ecda484d80608853f706bc9d959773f369c6a4f31da43795b94af101d76a60405160405180910390a450505050505050565b60095481565b60036020528060005260406000206000915090508060000160009054906101000a900473ffffffffffffffffffffffffffffffffffffffff16908060000160149054906101000a900460ff1690806001018054613221906150a0565b80601f016020809104026020016040519081016040528092919081815260200182805461324d906150a0565b801561329a5780601f1061326f5761010080835404028352916020019161329a565b820191906000526020600020905b81548152906001019060200180831161327d57829003601f168201915b5050505050908060020160009054906101000a900460ff16908060030154905085565b600160009054906101000a900473ffffffffffffffffffffffffffffffffffffffff1681565b600060028111156132f7576132f661424a565b5b82600281111561330a5761330961424a565b5b0361334a576040517f08c379a000000000000000000000000000000000000000000000000000000000815260040161334190615c61565b60405180910390fd5b600073ffffffffffffffffffffffffffffffffffffffff16600360003373ffffffffffffffffffffffffffffffffffffffff1673ffffffffffffffffffffffffffffffffffffffff16815260200190815260200160002060000160009054906101000a900473ffffffffffffffffffffffffffffffffffffffff1673ffffffffffffffffffffffffffffffffffffffff161461341b576040517f08c379a000000000000000000000000000000000000000000000000000000000815260040161341290615ccd565b60405180910390fd5b600081511161345f576040517f08c379a000000000000000000000000000000000000000000000000000000000815260040161345690615d39565b60405180910390fd5b6040518060a001604052803373ffffffffffffffffffffffffffffffffffffffff1681526020018360028111156134995761349861424a565b5b815260200182815260200160001515815260200142815250600360003373ffffffffffffffffffffffffffffffffffffffff1673ffffffffffffffffffffffffffffffffffffffff16815260200190815260200160002060008201518160000160006101000a81548173ffffffffffffffffffffffffffffffffffffffff021916908373ffffffffffffffffffffffffffffffffffffffff16021790555060208201518160000160146101000a81548160ff021916908360028111156135625761356161424a565b5b0217905550604082015181600101908161357c919061527d565b5060608201518160020160006101000a81548160ff021916908315150217905550608082015181600301559050506002339080600181540180825580915050600190039060005260206000200160009091909190916101000a81548173ffffffffffffffffffffffffffffffffffffffff021916908373ffffffffffffffffffffffffffffffffffffffff1602179055503373ffffffffffffffffffffffffffffffffffffffff167f04221ffa167b8d0a33647e46ee4f6728f4fe3651e4d56715ed0941b12046147b8383604051613655929190615d59565b60405180910390a25050565b6006602052816000526040600020818154811061367d57600080fd5b90600052602060002001600091509150505481565b60046020528060005260406000206000915090508060000154908060010160009054906101000a900473ffffffffffffffffffffffffffffffffffffffff16908060020180546136e1906150a0565b80601f016020809104026020016040519081016040528092919081815260200182805461370d906150a0565b801561375a5780601f1061372f5761010080835404028352916020019161375a565b820191906000526020600020905b81548152906001019060200180831161373d57829003601f168201915b50505050509080600301549080600401549080600501805461377b906150a0565b80601f01602080910402602001604051908101604052809291908181526020018280546137a7906150a0565b80156137f45780601f106137c9576101008083540402835291602001916137f4565b820191906000526020600020905b8154815290600101906020018083116137d757829003601f168201915b5050505050908060060160009054906101000a900460ff16908060070154905088565b6000811180156138295750600a548111155b613868576040517f08c379a000000000000000000000000000000000000000000000000000000000815260040161385f906153fa565b60405180910390fd5b6000600560008381526020019081526020016000209050600060038111156138935761389261424a565b5b8160050160009054906101000a900460ff1660038111156138b7576138b661424a565b5b146138f7576040517f08c379a00000000000000000000000000000000000000000000000000000000081526004016138ee90615466565b60405180910390fd5b8060030160009054906101000a900473ffffffffffffffffffffffffffffffffffffffff1673ffffffffffffffffffffffffffffffffffffffff163373ffffffffffffffffffffffffffffffffffffffff1614806139a0575060008054906101000a900473ffffffffffffffffffffffffffffffffffffffff1673ffffffffffffffffffffffffffffffffffffffff163373ffffffffffffffffffffffffffffffffffffffff16145b6139df576040517f08c379a00000000000000000000000000000000000000000000000000000000081526004016139d690615dd5565b60405180910390fd5b60028160050160006101000a81548160ff02191690836003811115613a0757613a0661424a565b5b02179055506001600460008360010154815260200190815260200160002060060160006101000a81548160ff02191690831515021790555060008160020160009054906101000a900473ffffffffffffffffffffffffffffffffffffffff1673ffffffffffffffffffffffffffffffffffffffff168260040154604051613a8d9061573f565b60006040518083038185875af1925050503d8060008114613aca576040519150601f19603f3d011682016040523d82523d6000602084013e613acf565b606091505b5050905080613b13576040517f08c379a0000000000000000000000000000000000000000000000000000000008152600401613b0a90615e41565b60405180910390fd5b827f1fdac08e93f72ff55b24ebdf4152b7f56b98982fe9249639c1010cc52aebccd660405160405180910390a2505050565b60008054906101000a900473ffffffffffffffffffffffffffffffffffffffff1681565b60086020528160005260406000208181548110613b8557600080fd5b906000526020600020016000915091509054906101000a900473ffffffffffffffffffffffffffffffffffffffff1681565b613bbf613e90565b600082118015613bd157506009548211155b613c10576040517f08c379a0000000000000000000000000000000000000000000000000000000008152600401613c07906158e4565b60405180910390fd5b6004600083815260200190815260200160002060405180610100016040529081600082015481526020016001820160009054906101000a900473ffffffffffffffffffffffffffffffffffffffff1673ffffffffffffffffffffffffffffffffffffffff1673ffffffffffffffffffffffffffffffffffffffff168152602001600282018054613c9f906150a0565b80601f0160208091040260200160405190810160405280929190818152602001828054613ccb906150a0565b8015613d185780601f10613ced57610100808354040283529160200191613d18565b820191906000526020600020905b815481529060010190602001808311613cfb57829003601f168201915b505050505081526020016003820154815260200160048201548152602001600582018054613d45906150a0565b80601f0160208091040260200160405190810160405280929190818152602001828054613d71906150a0565b8015613dbe5780601f10613d9357610100808354040283529160200191613dbe565b820191906000526020600020905b815481529060010190602001808311613da157829003601f168201915b505050505081526020016006820160009054906101000a900460ff161515151581526020016007820154815250509050919050565b6000600a54905090565b6040518061014001604052806000815260200160008152602001600073ffffffffffffffffffffffffffffffffffffffff168152602001600073ffffffffffffffffffffffffffffffffffffffff1681526020016000815260200160006003811115613e6c57613e6b61424a565b5b81526020016000151581526020016000815260200160008152602001600081525090565b60405180610100016040528060008152602001600073ffffffffffffffffffffffffffffffffffffffff16815260200160608152602001600081526020016000815260200160608152602001600015158152602001600081525090565b6040518060a00160405280600073ffffffffffffffffffffffffffffffffffffffff16815260200160006002811115613f2957613f2861424a565b5b815260200160608152602001600015158152602001600081525090565b6000604051905090565b600080fd5b600080fd5b600080fd5b600080fd5b6000601f19601f8301169050919050565b7f4e487b7100000000000000000000000000000000000000000000000000000000600052604160045260246000fd5b613fad82613f64565b810181811067ffffffffffffffff82111715613fcc57613fcb613f75565b5b80604052505050565b6000613fdf613f46565b9050613feb8282613fa4565b919050565b600067ffffffffffffffff82111561400b5761400a613f75565b5b61401482613f64565b9050602081019050919050565b82818337600083830152505050565b600061404361403e84613ff0565b613fd5565b90508281526020810184848401111561405f5761405e613f5f565b5b61406a848285614021565b509392505050565b600082601f83011261408757614086613f5a565b5b8135614097848260208601614030565b91505092915050565b6000819050919050565b6140b3816140a0565b81146140be57600080fd5b50565b6000813590506140d0816140aa565b92915050565b600080600080608085870312156140f0576140ef613f50565b5b600085013567ffffffffffffffff81111561410e5761410d613f55565b5b61411a87828801614072565b945050602061412b878288016140c1565b935050604061413c878288016140c1565b925050606085013567ffffffffffffffff81111561415d5761415c613f55565b5b61416987828801614072565b91505092959194509250565b600073ffffffffffffffffffffffffffffffffffffffff82169050919050565b60006141a082614175565b9050919050565b6141b081614195565b81146141bb57600080fd5b50565b6000813590506141cd816141a7565b92915050565b6000602082840312156141e9576141e8613f50565b5b60006141f7848285016141be565b91505092915050565b600081519050919050565b600082825260208201905092915050565b6000819050602082019050919050565b614235816140a0565b82525050565b61424481614195565b82525050565b7f4e487b7100000000000000000000000000000000000000000000000000000000600052602160045260246000fd5b6004811061428a5761428961424a565b5b50565b600081905061429b82614279565b919050565b60006142ab8261428d565b9050919050565b6142bb816142a0565b82525050565b60008115159050919050565b6142d6816142c1565b82525050565b610140820160008201516142f3600085018261422c565b506020820151614306602085018261422c565b506040820151614319604085018261423b565b50606082015161432c606085018261423b565b50608082015161433f608085018261422c565b5060a082015161435260a08501826142b2565b5060c082015161436560c08501826142cd565b5060e082015161437860e085018261422c565b5061010082015161438d61010085018261422c565b506101208201516143a261012085018261422c565b50505050565b60006143b483836142dc565b6101408301905092915050565b6000602082019050919050565b60006143d982614200565b6143e3818561420b565b93506143ee8361421c565b8060005b8381101561441f57815161440688826143a8565b9750614411836143c1565b9250506001810190506143f2565b5085935050505092915050565b6000602082019050818103600083015261444681846143ce565b905092915050565b600081519050919050565b600082825260208201905092915050565b6000819050602082019050919050565b600081519050919050565b600082825260208201905092915050565b60005b838110156144b4578082015181840152602081019050614499565b60008484015250505050565b60006144cb8261447a565b6144d58185614485565b93506144e5818560208601614496565b6144ee81613f64565b840191505092915050565b600061010083016000830151614512600086018261422c565b506020830151614525602086018261423b565b506040830151848203604086015261453d82826144c0565b9150506060830151614552606086018261422c565b506080830151614565608086018261422c565b5060a083015184820360a086015261457d82826144c0565b91505060c083015161459260c08601826142cd565b5060e08301516145a560e086018261422c565b508091505092915050565b60006145bc83836144f9565b905092915050565b6000602082019050919050565b60006145dc8261444e565b6145e68185614459565b9350836020820285016145f88561446a565b8060005b85811015614634578484038952815161461585826145b0565b9450614620836145c4565b925060208a019950506001810190506145fc565b50829750879550505050505092915050565b6000602082019050818103600083015261466081846145d1565b905092915050565b6000806040838503121561467f5761467e613f50565b5b600061468d858286016141be565b925050602061469e858286016140c1565b9150509250929050565b6146b1816140a0565b82525050565b60006020820190506146cc60008301846146a8565b92915050565b600081519050919050565b600082825260208201905092915050565b6000819050602082019050919050565b6003811061470f5761470e61424a565b5b50565b6000819050614720826146fe565b919050565b600061473082614712565b9050919050565b61474081614725565b82525050565b600060a08301600083015161475e600086018261423b565b5060208301516147716020860182614737565b506040830151848203604086015261478982826144c0565b915050606083015161479e60608601826142cd565b5060808301516147b1608086018261422c565b508091505092915050565b60006147c88383614746565b905092915050565b6000602082019050919050565b60006147e8826146d2565b6147f281856146dd565b935083602082028501614804856146ee565b8060005b85811015614840578484038952815161482185826147bc565b945061482c836147d0565b925060208a01995050600181019050614808565b50829750879550505050505092915050565b6000602082019050818103600083015261486c81846147dd565b905092915050565b60006020828403121561488a57614889613f50565b5b6000614898848285016140c1565b91505092915050565b6148aa81614195565b82525050565b6148b9816142a0565b82525050565b6148c8816142c1565b82525050565b6000610140820190506148e4600083018d6146a8565b6148f1602083018c6146a8565b6148fe604083018b6148a1565b61490b606083018a6148a1565b61491860808301896146a8565b61492560a08301886148b0565b61493260c08301876148bf565b61493f60e08301866146a8565b61494d6101008301856146a8565b61495b6101208301846146a8565b9b9a5050505050505050505050565b61014082016000820151614981600085018261422c565b506020820151614994602085018261422c565b5060408201516149a7604085018261423b565b5060608201516149ba606085018261423b565b5060808201516149cd608085018261422c565b5060a08201516149e060a08501826142b2565b5060c08201516149f360c08501826142cd565b5060e0820151614a0660e085018261422c565b50610100820151614a1b61010085018261422c565b50610120820151614a3061012085018261422c565b50505050565b600061014082019050614a4c600083018461496a565b92915050565b600060a083016000830151614a6a600086018261423b565b506020830151614a7d6020860182614737565b5060408301518482036040860152614a9582826144c0565b9150506060830151614aaa60608601826142cd565b506080830151614abd608086018261422c565b508091505092915050565b60006020820190508181036000830152614ae28184614a52565b905092915050565b6000602082019050614aff60008301846148a1565b92915050565b614b0e81614725565b82525050565b600082825260208201905092915050565b6000614b308261447a565b614b3a8185614b14565b9350614b4a818560208601614496565b614b5381613f64565b840191505092915050565b600060a082019050614b7360008301886148a1565b614b806020830187614b05565b8181036040830152614b928186614b25565b9050614ba160608301856148bf565b614bae60808301846146a8565b9695505050505050565b60038110614bc557600080fd5b50565b600081359050614bd781614bb8565b92915050565b60008060408385031215614bf457614bf3613f50565b5b6000614c0285828601614bc8565b925050602083013567ffffffffffffffff811115614c2357614c22613f55565b5b614c2f85828601614072565b9150509250929050565b600061010082019050614c4f600083018b6146a8565b614c5c602083018a6148a1565b8181036040830152614c6e8189614b25565b9050614c7d60608301886146a8565b614c8a60808301876146a8565b81810360a0830152614c9c8186614b25565b9050614cab60c08301856148bf565b614cb860e08301846146a8565b9998505050505050505050565b60008060408385031215614cdc57614cdb613f50565b5b6000614cea858286016140c1565b9250506020614cfb858286016140c1565b9150509250929050565b600061010083016000830151614d1e600086018261422c565b506020830151614d31602086018261423b565b5060408301518482036040860152614d4982826144c0565b9150506060830151614d5e606086018261422c565b506080830151614d71608086018261422c565b5060a083015184820360a0860152614d8982826144c0565b91505060c0830151614d9e60c08601826142cd565b5060e0830151614db160e086018261422c565b508091505092915050565b60006020820190508181036000830152614dd68184614d05565b905092915050565b7f55736572206e6f74207665726966696564000000000000000000000000000000600082015250565b6000614e14601183614b14565b9150614e1f82614dde565b602082019050919050565b60006020820190508181036000830152614e4381614e07565b9050919050565b7f4f6e6c792073656c6c6572732063616e2063616c6c2074686973000000000000600082015250565b6000614e80601a83614b14565b9150614e8b82614e4a565b602082019050919050565b60006020820190508181036000830152614eaf81614e73565b9050919050565b7f41726561206d7573742062652067726561746572207468616e207a65726f0000600082015250565b6000614eec601e83614b14565b9150614ef782614eb6565b602082019050919050565b60006020820190508181036000830152614f1b81614edf565b9050919050565b7f5072696365206d7573742062652067726561746572207468616e207a65726f00600082015250565b6000614f58601f83614b14565b9150614f6382614f22565b602082019050919050565b60006020820190508181036000830152614f8781614f4b565b9050919050565b7f4c6f636174696f6e2063616e6e6f7420626520656d7074790000000000000000600082015250565b6000614fc4601883614b14565b9150614fcf82614f8e565b602082019050919050565b60006020820190508181036000830152614ff381614fb7565b9050919050565b7f4e487b7100000000000000000000000000000000000000000000000000000000600052601160045260246000fd5b6000615034826140a0565b91507fffffffffffffffffffffffffffffffffffffffffffffffffffffffffffffffff820361506657615065614ffa565b5b600182019050919050565b7f4e487b7100000000000000000000000000000000000000000000000000000000600052602260045260246000fd5b600060028204905060018216806150b857607f821691505b6020821081036150cb576150ca615071565b5b50919050565b60008190508160005260206000209050919050565b60006020601f8301049050919050565b600082821b905092915050565b6000600883026151337fffffffffffffffffffffffffffffffffffffffffffffffffffffffffffffffff826150f6565b61513d86836150f6565b95508019841693508086168417925050509392505050565b6000819050919050565b600061517a615175615170846140a0565b615155565b6140a0565b9050919050565b6000819050919050565b6151948361515f565b6151a86151a082615181565b848454615103565b825550505050565b600090565b6151bd6151b0565b6151c881848461518b565b505050565b5b818110156151ec576151e16000826151b5565b6001810190506151ce565b5050565b601f82111561523157615202816150d1565b61520b846150e6565b8101602085101561521a578190505b61522e615226856150e6565b8301826151cd565b50505b505050565b600082821c905092915050565b600061525460001984600802615236565b1980831691505092915050565b600061526d8383615243565b9150826002028217905092915050565b6152868261447a565b67ffffffffffffffff81111561529f5761529e613f75565b5b6152a982546150a0565b6152b48282856151f0565b600060209050601f8311600181146152e757600084156152d5578287015190505b6152df8582615261565b865550615347565b601f1984166152f5866150d1565b60005b8281101561531d578489015182556001820191506020850194506020810190506152f8565b8683101561533a5784890151615336601f891682615243565b8355505b6001600288020188555050505b505050505050565b600060408201905081810360008301526153698185614b25565b905061537860208301846146a8565b9392505050565b7f4e487b7100000000000000000000000000000000000000000000000000000000600052603260045260246000fd5b7f496e76616c696420726571756573742049440000000000000000000000000000600082015250565b60006153e4601283614b14565b91506153ef826153ae565b602082019050919050565b60006020820190508181036000830152615413816153d7565b9050919050565b7f52657175657374206973206e6f742070656e64696e6700000000000000000000600082015250565b6000615450601683614b14565b915061545b8261541a565b602082019050919050565b6000602082019050818103600083015261547f81615443565b9050919050565b7f4f6e6c792073656c6c65722063616e20617070726f7665000000000000000000600082015250565b60006154bc601783614b14565b91506154c782615486565b602082019050919050565b600060208201905081810360008301526154eb816154af565b9050919050565b7f4f6e6c7920696e73706563746f722063616e2063616c6c207468697300000000600082015250565b6000615528601c83614b14565b9150615533826154f2565b602082019050919050565b600060208201905081810360008301526155578161551b565b9050919050565b7f55736572206e6f74207265676973746572656400000000000000000000000000600082015250565b6000615594601383614b14565b915061559f8261555e565b602082019050919050565b600060208201905081810360008301526155c381615587565b9050919050565b7f5573657220616c72656164792076657269666965640000000000000000000000600082015250565b6000615600601583614b14565b915061560b826155ca565b602082019050919050565b6000602082019050818103600083015261562f816155f3565b9050919050565b7f4f6e6c79206f776e65722063616e2063616c6c20746869730000000000000000600082015250565b600061566c601883614b14565b915061567782615636565b602082019050919050565b6000602082019050818103600083015261569b8161565f565b9050919050565b7f496e76616c696420696e73706563746f72206164647265737300000000000000600082015250565b60006156d8601983614b14565b91506156e3826156a2565b602082019050919050565b60006020820190508181036000830152615707816156cb565b9050919050565b600081905092915050565b50565b600061572960008361570e565b915061573482615719565b600082019050919050565b600061574a8261571c565b9150819050919050565b7f5769746864726177616c206661696c6564000000000000000000000000000000600082015250565b600061578a601183614b14565b915061579582615754565b602082019050919050565b600060208201905081810360008301526157b98161577d565b9050919050565b7f55736572206e6f7420666f756e64000000000000000000000000000000000000600082015250565b60006157f6600e83614b14565b9150615801826157c0565b602082019050919050565b60006020820190508181036000830152615825816157e9565b9050919050565b7f4f6e6c79206275796572732063616e2063616c6c207468697300000000000000600082015250565b6000615862601983614b14565b915061586d8261582c565b602082019050919050565b6000602082019050818103600083015261589181615855565b9050919050565b7f496e76616c6964206c616e642049440000000000000000000000000000000000600082015250565b60006158ce600f83614b14565b91506158d982615898565b602082019050919050565b600060208201905081810360008301526158fd816158c1565b9050919050565b7f4c616e64206e6f7420617661696c61626c650000000000000000000000000000600082015250565b600061593a601283614b14565b915061594582615904565b602082019050919050565b600060208201905081810360008301526159698161592d565b9050919050565b7f5061796d656e7420616d6f756e7420646f6573206e6f74206d61746368206c6160008201527f6e64207072696365000000000000000000000000000000000000000000000000602082015250565b60006159cc602883614b14565b91506159d782615970565b604082019050919050565b600060208201905081810360008301526159fb816159bf565b9050919050565b7f53656c6c65722063616e6e6f742072657175657374206f776e206c616e640000600082015250565b6000615a38601e83614b14565b9150615a4382615a02565b602082019050919050565b60006020820190508181036000830152615a6781615a2b565b9050919050565b7f52657175657374206e6f7420617070726f766564000000000000000000000000600082015250565b6000615aa4601483614b14565b9150615aaf82615a6e565b602082019050919050565b60006020820190508181036000830152615ad381615a97565b9050919050565b7f5061796d656e74206e6f74207265636569766564000000000000000000000000600082015250565b6000615b10601483614b14565b9150615b1b82615ada565b602082019050919050565b60006020820190508181036000830152615b3f81615b03565b9050919050565b6000615b51826140a0565b9150615b5c836140a0565b9250828203905081811115615b7457615b73614ffa565b5b92915050565b7f4e487b7100000000000000000000000000000000000000000000000000000000600052603160045260246000fd5b7f5061796d656e7420746f2073656c6c6572206661696c65640000000000000000600082015250565b6000615bdf601883614b14565b9150615bea82615ba9565b602082019050919050565b60006020820190508181036000830152615c0e81615bd2565b9050919050565b7f496e76616c696420726f6c650000000000000000000000000000000000000000600082015250565b6000615c4b600c83614b14565b9150615c5682615c15565b602082019050919050565b60006020820190508181036000830152615c7a81615c3e565b9050919050565b7f5573657220616c72656164792072656769737465726564000000000000000000600082015250565b6000615cb7601783614b14565b9150615cc282615c81565b602082019050919050565b60006020820190508181036000830152615ce681615caa565b9050919050565b7f4e616d652063616e6e6f7420626520656d707479000000000000000000000000600082015250565b6000615d23601483614b14565b9150615d2e82615ced565b602082019050919050565b60006020820190508181036000830152615d5281615d16565b9050919050565b6000604082019050615d6e6000830185614b05565b8181036020830152615d808184614b25565b90509392505050565b7f4e6f7420617574686f72697a6564000000000000000000000000000000000000600082015250565b6000615dbf600e83614b14565b9150615dca82615d89565b602082019050919050565b60006020820190508181036000830152615dee81615db2565b9050919050565b7f526566756e64206661696c656400000000000000000000000000000000000000600082015250565b6000615e2b600d83614b14565b9150615e3682615df5565b602082019050919050565b60006020820190508181036000830152615e5a81615e1e565b905091905056fea2646970667358221220adac38c82ae3de9951e7a27bd8bfdca7fdf141b0acca25ea10b0b730b4b215ce64736f6c63430008140033",
  "linkReferences": {},
  "deployedLinkReferences": {}
}