{
  "_format": "hh-sol-artifact-1",
  "contractName": "LandRegistry",
  "sourceName": "contracts/LandRegistry.sol",
  "abi": [
    {
      "anonymous": false,
      "inputs": [
        {
          "indexed": true,
          "internalType": "uint256",
          "name": "landId",
          "type": "uint256"
        },
        {
          "indexed": false,
          "internalType": "string",
          "name": "location",
          "type": "string"
        },
        {
          "indexed": false,
          "internalType": "uint256",
          "name": "area",
          "type": "uint256"
        },
        {
          "indexed": true,
          "internalType": "address",
          "name": "owner",
          "type": "address"
        }
      ],
      "name": "LandRegistered",
      "type": "event"
    },
    {
      "anonymous": false,
      "inputs": [
        {
          "indexed": true,
          "internalType": "uint256",
          "name": "landId",
          "type": "uint256"
        },
        {
          "indexed": true,
          "internalType": "address",
          "name": "fromOwner",
          "type": "address"
        },
        {
          "indexed": true,
          "internalType": "address",
          "name": "toOwner",
          "type": "address"
        }
      ],
      "name": "OwnershipTransferred",
      "type": "event"
    },
    {
      "inputs": [
        {
          "internalType": "uint256",
          "name": "_landId",
          "type": "uint256"
        }
      ],
      "name": "getLand",
      "outputs": [
        {
          "components": [
            {
              "internalType": "uint256",
              "name": "id",
              "type": "uint256"
            },
            {
              "internalType": "string",
              "name": "location",
              "type": "string"
            },
            {
              "internalType": "uint256",
              "name": "area",
              "type": "uint256"
            },
            {
              "internalType": "address",
              "name": "currentOwner",
              "type": "address"
            },
            {
              "internalType": "uint256",
              "name": "registrationDate",
              "type": "uint256"
            }
          ],
          "internalType": "struct LandRegistry.Land",
          "name": "",
          "type": "tuple"
        }
      ],
      "stateMutability": "view",
      "type": "function"
    },
    {
      "inputs": [
        {
          "internalType": "address",
          "name": "_owner",
          "type": "address"
        }
      ],
      "name": "getLandsByOwner",
      "outputs": [
        {
          "components": [
            {
              "internalType": "uint256",
              "name": "id",
              "type": "uint256"
            },
            {
              "internalType": "string",
              "name": "location",
              "type": "string"
            },
            {
              "internalType": "uint256",
              "name": "area",
              "type": "uint256"
            },
            {
              "internalType": "address",
              "name": "currentOwner",
              "type": "address"
            },
            {
              "internalType": "uint256",
              "name": "registrationDate",
              "type": "uint256"
            }
          ],
          "internalType": "struct LandRegistry.Land[]",
          "name": "",
          "type": "tuple[]"
        }
      ],
      "stateMutability": "view",
      "type": "function"
    },
    {
      "inputs": [
        {
          "internalType": "uint256",
          "name": "_landId",
          "type": "uint256"
        }
      ],
      "name": "getOwnershipHistory",
      "outputs": [
        {
          "components": [
            {
              "internalType": "address",
              "name": "owner",
              "type": "address"
            },
            {
              "internalType": "uint256",
              "name": "timestamp",
              "type": "uint256"
            }
          ],
          "internalType": "struct LandRegistry.OwnershipRecord[]",
          "name": "",
          "type": "tuple[]"
        }
      ],
      "stateMutability": "view",
      "type": "function"
    },
    {
      "inputs": [],
      "name": "getTotalLands",
      "outputs": [
        {
          "internalType": "uint256",
          "name": "",
          "type": "uint256"
        }
      ],
      "stateMutability": "view",
      "type": "function"
    },
    {
      "inputs": [],
      "name": "landCounter",
      "outputs": [
        {
          "internalType": "uint256",
          "name": "",
          "type": "uint256"
        }
      ],
      "stateMutability": "view",
      "type": "function"
    },
    {
      "inputs": [
        {
          "internalType": "uint256",
          "name": "",
          "type": "uint256"
        }
      ],
      "name": "lands",
      "outputs": [
        {
          "internalType": "uint256",
          "name": "id",
          "type": "uint256"
        },
        {
          "internalType": "string",
          "name": "location",
          "type": "string"
        },
        {
          "internalType": "uint256",
          "name": "area",
          "type": "uint256"
        },
        {
          "internalType": "address",
          "name": "currentOwner",
          "type": "address"
        },
        {
          "internalType": "uint256",
          "name": "registrationDate",
          "type": "uint256"
        }
      ],
      "stateMutability": "view",
      "type": "function"
    },
    {
      "inputs": [
        {
          "internalType": "address",
          "name": "",
          "type": "address"
        },
        {
          "internalType": "uint256",
          "name": "",
          "type": "uint256"
        }
      ],
      "name": "ownerLands",
      "outputs": [
        {
          "internalType": "uint256",
          "name": "",
          "type": "uint256"
        }
      ],
      "stateMutability": "view",
      "type": "function"
    },
    {
      "inputs": [
        {
          "internalType": "uint256",
          "name": "",
          "type": "uint256"
        },
        {
          "internalType": "uint256",
          "name": "",
          "type": "uint256"
        }
      ],
      "name": "ownershipHistory",
      "outputs": [
        {
          "internalType": "address",
          "name": "owner",
          "type": "address"
        },
        {
          "internalType": "uint256",
          "name": "timestamp",
          "type": "uint256"
        }
      ],
      "stateMutability": "view",
      "type": "function"
    },
    {
      "inputs": [
        {
          "internalType": "string",
          "name": "_location",
          "type": "string"
        },
        {
          "internalType": "uint256",
          "name": "_area",
          "type": "uint256"
        }
      ],
      "name": "registerLand",
      "outputs": [],
      "stateMutability": "nonpayable",
      "type": "function"
    },
    {
      "inputs": [
        {
          "internalType": "uint256",
          "name": "_landId",
          "type": "uint256"
        },
        {
          "internalType": "address",
          "name": "_newOwner",
          "type": "address"
        }
      ],
      "name": "transferOwnership",
      "outputs": [],
      "stateMutability": "nonpayable",
      "type": "function"
    }
  ],
  "bytecode": "0x6080604052600060035534801561001557600080fd5b50611e4c806100256000396000f3fe608060405234801561001057600080fd5b506004361061009e5760003560e01c8063ce924ed911610066578063ce924ed91461015c578063d0dea6e214610178578063e261f1e5146101a8578063f02dd53f146101dc578063f1dbaccb1461020c5761009e565b806329507f73146100a3578063455b9d23146100bf578063842e7dba146100ef5780639e29ce181461010d578063c9cf2adc1461012b575b600080fd5b6100bd60048036038101906100b89190611089565b61023c565b005b6100d960048036038101906100d491906110c9565b61061b565b6040516100e691906112dc565b60405180910390f35b6100f761088d565b604051610104919061130d565b60405180910390f35b610115610897565b604051610122919061130d565b60405180910390f35b61014560048036038101906101409190611328565b61089d565b604051610153929190611377565b60405180910390f35b610176600480360381019061017191906114d5565b6108fe565b005b610192600480360381019061018d9190611531565b610be7565b60405161019f919061130d565b60405180910390f35b6101c260048036038101906101bd9190611571565b610c18565b6040516101d39594939291906115e8565b60405180910390f35b6101f660048036038101906101f19190611571565b610cf6565b60405161020391906116b8565b60405180910390f35b61022660048036038101906102219190611571565b610e79565b60405161023391906117b8565b60405180910390f35b60008211801561024e57506003548211155b61028d576040517f08c379a000000000000000000000000000000000000000000000000000000000815260040161028490611826565b60405180910390fd5b3373ffffffffffffffffffffffffffffffffffffffff1660008084815260200190815260200160002060030160009054906101000a900473ffffffffffffffffffffffffffffffffffffffff1673ffffffffffffffffffffffffffffffffffffffff1614610330576040517f08c379a000000000000000000000000000000000000000000000000000000000815260040161032790611892565b60405180910390fd5b600073ffffffffffffffffffffffffffffffffffffffff168173ffffffffffffffffffffffffffffffffffffffff160361039f576040517f08c379a0000000000000000000000000000000000000000000000000000000008152600401610396906118fe565b60405180910390fd5b3373ffffffffffffffffffffffffffffffffffffffff168173ffffffffffffffffffffffffffffffffffffffff160361040d576040517f08c379a00000000000000000000000000000000000000000000000000000000081526004016104049061196a565b60405180910390fd5b600080600084815260200190815260200160002060030160009054906101000a900473ffffffffffffffffffffffffffffffffffffffff1690508160008085815260200190815260200160002060030160006101000a81548173ffffffffffffffffffffffffffffffffffffffff021916908373ffffffffffffffffffffffffffffffffffffffff160217905550600260008373ffffffffffffffffffffffffffffffffffffffff1673ffffffffffffffffffffffffffffffffffffffff1681526020019081526020016000208390806001815401808255809150506001900390600052602060002001600090919091909150556001600084815260200190815260200160002060405180604001604052808473ffffffffffffffffffffffffffffffffffffffff16815260200142815250908060018154018082558091505060019003906000526020600020906002020160009091909190915060008201518160000160006101000a81548173ffffffffffffffffffffffffffffffffffffffff021916908373ffffffffffffffffffffffffffffffffffffffff1602179055506020820151816001015550508173ffffffffffffffffffffffffffffffffffffffff168173ffffffffffffffffffffffffffffffffffffffff16847f16b85f49bf01212961345d3016c9a531894accf62eb7680f2045d79185cc0ec060405160405180910390a4505050565b60606000600260008473ffffffffffffffffffffffffffffffffffffffff1673ffffffffffffffffffffffffffffffffffffffff1681526020019081526020016000208054806020026020016040519081016040528092919081815260200182805480156106a857602002820191906000526020600020905b815481526020019060010190808311610694575b505050505090506000815167ffffffffffffffff8111156106cc576106cb6113aa565b5b60405190808252806020026020018201604052801561070557816020015b6106f2610f9c565b8152602001906001900390816106ea5790505b50905060005b82518110156108825760008084838151811061072a5761072961198a565b5b602002602001015181526020019081526020016000206040518060a001604052908160008201548152602001600182018054610765906119e8565b80601f0160208091040260200160405190810160405280929190818152602001828054610791906119e8565b80156107de5780601f106107b3576101008083540402835291602001916107de565b820191906000526020600020905b8154815290600101906020018083116107c157829003601f168201915b50505050508152602001600282015481526020016003820160009054906101000a900473ffffffffffffffffffffffffffffffffffffffff1673ffffffffffffffffffffffffffffffffffffffff1673ffffffffffffffffffffffffffffffffffffffff1681526020016004820154815250508282815181106108645761086361198a565b5b6020026020010181905250808061087a90611a48565b91505061070b565b508092505050919050565b6000600354905090565b60035481565b600160205281600052604060002081815481106108b957600080fd5b9060005260206000209060020201600091509150508060000160009054906101000a900473ffffffffffffffffffffffffffffffffffffffff16908060010154905082565b60008111610941576040517f08c379a000000000000000000000000000000000000000000000000000000000815260040161093890611adc565b60405180910390fd5b6000825111610985576040517f08c379a000000000000000000000000000000000000000000000000000000000815260040161097c90611b48565b60405180910390fd5b6003600081548092919061099890611a48565b9190505550600060035490506040518060a001604052808281526020018481526020018381526020013373ffffffffffffffffffffffffffffffffffffffff16815260200142815250600080838152602001908152602001600020600082015181600001556020820151816001019081610a129190611d14565b506040820151816002015560608201518160030160006101000a81548173ffffffffffffffffffffffffffffffffffffffff021916908373ffffffffffffffffffffffffffffffffffffffff16021790555060808201518160040155905050600260003373ffffffffffffffffffffffffffffffffffffffff1673ffffffffffffffffffffffffffffffffffffffff1681526020019081526020016000208190806001815401808255809150506001900390600052602060002001600090919091909150556001600082815260200190815260200160002060405180604001604052803373ffffffffffffffffffffffffffffffffffffffff16815260200142815250908060018154018082558091505060019003906000526020600020906002020160009091909190915060008201518160000160006101000a81548173ffffffffffffffffffffffffffffffffffffffff021916908373ffffffffffffffffffffffffffffffffffffffff1602179055506020820151816001015550503373ffffffffffffffffffffffffffffffffffffffff16817f53a976a9b9d61df3bb2e08e33448938aea67fb03572279eb18ed48cdd6fad04e8585604051610bda929190611de6565b60405180910390a3505050565b60026020528160005260406000208181548110610c0357600080fd5b90600052602060002001600091509150505481565b6000602052806000526040600020600091509050806000015490806001018054610c41906119e8565b80601f0160208091040260200160405190810160405280929190818152602001828054610c6d906119e8565b8015610cba5780601f10610c8f57610100808354040283529160200191610cba565b820191906000526020600020905b815481529060010190602001808311610c9d57829003601f168201915b5050505050908060020154908060030160009054906101000a900473ffffffffffffffffffffffffffffffffffffffff16908060040154905085565b610cfe610f9c565b600082118015610d1057506003548211155b610d4f576040517f08c379a0000000000000000000000000000000000000000000000000000000008152600401610d4690611826565b60405180910390fd5b6000808381526020019081526020016000206040518060a001604052908160008201548152602001600182018054610d86906119e8565b80601f0160208091040260200160405190810160405280929190818152602001828054610db2906119e8565b8015610dff5780601f10610dd457610100808354040283529160200191610dff565b820191906000526020600020905b815481529060010190602001808311610de257829003601f168201915b50505050508152602001600282015481526020016003820160009054906101000a900473ffffffffffffffffffffffffffffffffffffffff1673ffffffffffffffffffffffffffffffffffffffff1673ffffffffffffffffffffffffffffffffffffffff1681526020016004820154815250509050919050565b6060600082118015610e8d57506003548211155b610ecc576040517f08c379a0000000000000000000000000000000000000000000000000000000008152600401610ec390611826565b60405180910390fd5b60016000838152602001908152602001600020805480602002602001604051908101604052809291908181526020016000905b82821015610f9157838290600052602060002090600202016040518060400160405290816000820160009054906101000a900473ffffffffffffffffffffffffffffffffffffffff1673ffffffffffffffffffffffffffffffffffffffff1673ffffffffffffffffffffffffffffffffffffffff16815260200160018201548152505081526020019060010190610eff565b505050509050919050565b6040518060a00160405280600081526020016060815260200160008152602001600073ffffffffffffffffffffffffffffffffffffffff168152602001600081525090565b6000604051905090565b600080fd5b600080fd5b6000819050919050565b61100881610ff5565b811461101357600080fd5b50565b60008135905061102581610fff565b92915050565b600073ffffffffffffffffffffffffffffffffffffffff82169050919050565b60006110568261102b565b9050919050565b6110668161104b565b811461107157600080fd5b50565b6000813590506110838161105d565b92915050565b600080604083850312156110a05761109f610feb565b5b60006110ae85828601611016565b92505060206110bf85828601611074565b9150509250929050565b6000602082840312156110df576110de610feb565b5b60006110ed84828501611074565b91505092915050565b600081519050919050565b600082825260208201905092915050565b6000819050602082019050919050565b61112b81610ff5565b82525050565b600081519050919050565b600082825260208201905092915050565b60005b8381101561116b578082015181840152602081019050611150565b60008484015250505050565b6000601f19601f8301169050919050565b600061119382611131565b61119d818561113c565b93506111ad81856020860161114d565b6111b681611177565b840191505092915050565b6111ca8161104b565b82525050565b600060a0830160008301516111e86000860182611122565b50602083015184820360208601526112008282611188565b91505060408301516112156040860182611122565b50606083015161122860608601826111c1565b50608083015161123b6080860182611122565b508091505092915050565b600061125283836111d0565b905092915050565b6000602082019050919050565b6000611272826110f6565b61127c8185611101565b93508360208202850161128e85611112565b8060005b858110156112ca57848403895281516112ab8582611246565b94506112b68361125a565b925060208a01995050600181019050611292565b50829750879550505050505092915050565b600060208201905081810360008301526112f68184611267565b905092915050565b61130781610ff5565b82525050565b600060208201905061132260008301846112fe565b92915050565b6000806040838503121561133f5761133e610feb565b5b600061134d85828601611016565b925050602061135e85828601611016565b9150509250929050565b6113718161104b565b82525050565b600060408201905061138c6000830185611368565b61139960208301846112fe565b9392505050565b600080fd5b600080fd5b7f4e487b7100000000000000000000000000000000000000000000000000000000600052604160045260246000fd5b6113e282611177565b810181811067ffffffffffffffff82111715611401576114006113aa565b5b80604052505050565b6000611414610fe1565b905061142082826113d9565b919050565b600067ffffffffffffffff8211156114405761143f6113aa565b5b61144982611177565b9050602081019050919050565b82818337600083830152505050565b600061147861147384611425565b61140a565b905082815260208101848484011115611494576114936113a5565b5b61149f848285611456565b509392505050565b600082601f8301126114bc576114bb6113a0565b5b81356114cc848260208601611465565b91505092915050565b600080604083850312156114ec576114eb610feb565b5b600083013567ffffffffffffffff81111561150a57611509610ff0565b5b611516858286016114a7565b925050602061152785828601611016565b9150509250929050565b6000806040838503121561154857611547610feb565b5b600061155685828601611074565b925050602061156785828601611016565b9150509250929050565b60006020828403121561158757611586610feb565b5b600061159584828501611016565b91505092915050565b600082825260208201905092915050565b60006115ba82611131565b6115c4818561159e565b93506115d481856020860161114d565b6115dd81611177565b840191505092915050565b600060a0820190506115fd60008301886112fe565b818103602083015261160f81876115af565b905061161e60408301866112fe565b61162b6060830185611368565b61163860808301846112fe565b9695505050505050565b600060a08301600083015161165a6000860182611122565b50602083015184820360208601526116728282611188565b91505060408301516116876040860182611122565b50606083015161169a60608601826111c1565b5060808301516116ad6080860182611122565b508091505092915050565b600060208201905081810360008301526116d28184611642565b905092915050565b600081519050919050565b600082825260208201905092915050565b6000819050602082019050919050565b60408201600082015161171c60008501826111c1565b50602082015161172f6020850182611122565b50505050565b60006117418383611706565b60408301905092915050565b6000602082019050919050565b6000611765826116da565b61176f81856116e5565b935061177a836116f6565b8060005b838110156117ab5781516117928882611735565b975061179d8361174d565b92505060018101905061177e565b5085935050505092915050565b600060208201905081810360008301526117d2818461175a565b905092915050565b7f496e76616c6964206c616e642049440000000000000000000000000000000000600082015250565b6000611810600f8361159e565b915061181b826117da565b602082019050919050565b6000602082019050818103600083015261183f81611803565b9050919050565b7f4f6e6c792063757272656e74206f776e65722063616e207472616e7366657200600082015250565b600061187c601f8361159e565b915061188782611846565b602082019050919050565b600060208201905081810360008301526118ab8161186f565b9050919050565b7f496e76616c6964206e6577206f776e6572206164647265737300000000000000600082015250565b60006118e860198361159e565b91506118f3826118b2565b602082019050919050565b60006020820190508181036000830152611917816118db565b9050919050565b7f43616e6e6f74207472616e7366657220746f20796f757273656c660000000000600082015250565b6000611954601b8361159e565b915061195f8261191e565b602082019050919050565b6000602082019050818103600083015261198381611947565b9050919050565b7f4e487b7100000000000000000000000000000000000000000000000000000000600052603260045260246000fd5b7f4e487b7100000000000000000000000000000000000000000000000000000000600052602260045260246000fd5b60006002820490506001821680611a0057607f821691505b602082108103611a1357611a126119b9565b5b50919050565b7f4e487b7100000000000000000000000000000000000000000000000000000000600052601160045260246000fd5b6000611a5382610ff5565b91507fffffffffffffffffffffffffffffffffffffffffffffffffffffffffffffffff8203611a8557611a84611a19565b5b600182019050919050565b7f41726561206d7573742062652067726561746572207468616e207a65726f0000600082015250565b6000611ac6601e8361159e565b9150611ad182611a90565b602082019050919050565b60006020820190508181036000830152611af581611ab9565b9050919050565b7f4c6f636174696f6e2063616e6e6f7420626520656d7074790000000000000000600082015250565b6000611b3260188361159e565b9150611b3d82611afc565b602082019050919050565b60006020820190508181036000830152611b6181611b25565b9050919050565b60008190508160005260206000209050919050565b60006020601f8301049050919050565b600082821b905092915050565b600060088302611bca7fffffffffffffffffffffffffffffffffffffffffffffffffffffffffffffffff82611b8d565b611bd48683611b8d565b95508019841693508086168417925050509392505050565b6000819050919050565b6000611c11611c0c611c0784610ff5565b611bec565b610ff5565b9050919050565b6000819050919050565b611c2b83611bf6565b611c3f611c3782611c18565b848454611b9a565b825550505050565b600090565b611c54611c47565b611c5f818484611c22565b505050565b5b81811015611c8357611c78600082611c4c565b600181019050611c65565b5050565b601f821115611cc857611c9981611b68565b611ca284611b7d565b81016020851015611cb1578190505b611cc5611cbd85611b7d565b830182611c64565b50505b505050565b600082821c905092915050565b6000611ceb60001984600802611ccd565b1980831691505092915050565b6000611d048383611cda565b9150826002028217905092915050565b611d1d82611131565b67ffffffffffffffff811115611d3657611d356113aa565b5b611d4082546119e8565b611d4b828285611c87565b600060209050601f831160018114611d7e5760008415611d6c578287015190505b611d768582611cf8565b865550611dde565b601f198416611d8c86611b68565b60005b82811015611db457848901518255600182019150602085019450602081019050611d8f565b86831015611dd15784890151611dcd601f891682611cda565b8355505b6001600288020188555050505b505050505050565b60006040820190508181036000830152611e0081856115af565b9050611e0f60208301846112fe565b939250505056fea26469706673582212201ff9debc559dafcf969fef755c90c228bf2d28736d369ef706703642ae78134564736f6c63430008140033",
  "linkReferences": {},
  "deployedLinkReferences": {}
}